{"contracts/Project.sol":{"Project":{"abi":[{"inputs":[{"internalType":"address","name":"_creator","type":"address"},{"internalType":"uint256","name":"_targetContribution","type":"uint256"},{"internalType":"uint256","name":"_minimumContribution","type":"uint256"},{"internalType":"string","name":"_projectTitle","type":"string"},{"internalType":"string","name":"_projectDes","type":"string"}],"stateMutability":"nonpayable","type":"constructor"},{"anonymous":false,"inputs":[{"indexed":false,"internalType":"uint256","name":"requestId","type":"uint256"},{"indexed":false,"internalType":"uint256","name":"amount","type":"uint256"},{"indexed":false,"internalType":"address","name":"recipient","type":"address"}],"name":"AmountWithdrawSuccessful","type":"event"},{"anonymous":false,"inputs":[{"indexed":false,"internalType":"address","name":"contributor","type":"address"},{"indexed":false,"internalType":"uint256","name":"amount","type":"uint256"},{"indexed":false,"internalType":"uint256","name":"currentTotal","type":"uint256"}],"name":"FundingReceived","type":"event"},{"anonymous":false,"inputs":[{"indexed":false,"internalType":"uint256","name":"requestId","type":"uint256"},{"indexed":false,"internalType":"string","name":"description","type":"string"},{"indexed":false,"internalType":"uint256","name":"amount","type":"uint256"},{"indexed":false,"internalType":"address","name":"recipient","type":"address"}],"name":"WithdrawRequestCreated","type":"event"},{"anonymous":false,"inputs":[{"indexed":false,"internalType":"address","name":"voter","type":"address"},{"indexed":false,"internalType":"uint256","name":"requestId","type":"uint256"}],"name":"WithdrawVote","type":"event"},{"inputs":[{"internalType":"address","name":"_contributor","type":"address"}],"name":"contribute","outputs":[],"stateMutability":"payable","type":"function"},{"inputs":[{"internalType":"address","name":"","type":"address"}],"name":"contributors","outputs":[{"internalType":"uint256","name":"","type":"uint256"}],"stateMutability":"view","type":"function"},{"inputs":[{"internalType":"string","name":"_description","type":"string"},{"internalType":"uint256","name":"_amount","type":"uint256"}],"name":"createWithdrawRequest","outputs":[],"stateMutability":"nonpayable","type":"function"},{"inputs":[],"name":"creator","outputs":[{"internalType":"address payable","name":"","type":"address"}],"stateMutability":"view","type":"function"},{"inputs":[],"name":"getContractBalance","outputs":[{"internalType":"uint256","name":"","type":"uint256"}],"stateMutability":"view","type":"function"},{"inputs":[],"name":"getProjectDetails","outputs":[{"internalType":"address payable","name":"projectStarter","type":"address"},{"internalType":"uint256","name":"goalAmount","type":"uint256"},{"internalType":"uint256","name":"currentAmount","type":"uint256"},{"internalType":"string","name":"title","type":"string"},{"internalType":"string","name":"desc","type":"string"},{"internalType":"enum Project.State","name":"currentState","type":"uint8"},{"internalType":"uint256","name":"balance","type":"uint256"}],"stateMutability":"view","type":"function"},{"inputs":[],"name":"minimumContribution","outputs":[{"internalType":"uint256","name":"","type":"uint256"}],"stateMutability":"view","type":"function"},{"inputs":[],"name":"noOfContributors","outputs":[{"internalType":"uint256","name":"","type":"uint256"}],"stateMutability":"view","type":"function"},{"inputs":[],"name":"numOfWithdrawRequests","outputs":[{"internalType":"uint256","name":"","type":"uint256"}],"stateMutability":"view","type":"function"},{"inputs":[],"name":"projectDes","outputs":[{"internalType":"string","name":"","type":"string"}],"stateMutability":"view","type":"function"},{"inputs":[],"name":"projectTitle","outputs":[{"internalType":"string","name":"","type":"string"}],"stateMutability":"view","type":"function"},{"inputs":[],"name":"raisedAmount","outputs":[{"internalType":"uint256","name":"","type":"uint256"}],"stateMutability":"view","type":"function"},{"inputs":[],"name":"state","outputs":[{"internalType":"enum Project.State","name":"","type":"uint8"}],"stateMutability":"view","type":"function"},{"inputs":[],"name":"targetContribution","outputs":[{"internalType":"uint256","name":"","type":"uint256"}],"stateMutability":"view","type":"function"},{"inputs":[{"internalType":"uint256","name":"_requestId","type":"uint256"}],"name":"voteWithdrawRequest","outputs":[],"stateMutability":"nonpayable","type":"function"},{"inputs":[{"internalType":"uint256","name":"_requestId","type":"uint256"}],"name":"withdrawRequestedAmount","outputs":[],"stateMutability":"nonpayable","type":"function"},{"inputs":[{"internalType":"uint256","name":"","type":"uint256"}],"name":"withdrawRequests","outputs":[{"internalType":"string","name":"description","type":"string"},{"internalType":"uint256","name":"amount","type":"uint256"},{"internalType":"uint256","name":"totalVoteWeight","type":"uint256"},{"internalType":"bool","name":"isCompleted","type":"bool"},{"internalType":"address payable","name":"recipient","type":"address"}],"stateMutability":"view","type":"function"}],"evm":{"bytecode":{"linkReferences":{},"object":"608060405260006003556000600760006101000a81548160ff0219169083600181111562000032576200003162000243565b5b02179055506000600a553480156200004957600080fd5b50604051620029e9380380620029e983398181016040528101906200006f9190620004a5565b846000806101000a81548173ffffffffffffffffffffffffffffffffffffffff021916908373ffffffffffffffffffffffffffffffffffffffff16021790555083600181905550826002819055508160059081620000ce9190620007ac565b508060069081620000e09190620007ac565b50620001286040518060400160405280601c81526020017f50726f6a65637420436f6e747261637420437265617465642061743a00000000815250306200013360201b60201c565b505050505062000959565b620001d582826040516024016200014c929190620008f6565b6040516020818303038152906040527f319af333000000000000000000000000000000000000000000000000000000007bffffffffffffffffffffffffffffffffffffffffffffffffffffffff19166020820180517bffffffffffffffffffffffffffffffffffffffffffffffffffffffff8381831617835250505050620001d960201b60201c565b5050565b620001ff81620001fa6200020260201b620010bb176200022360201b60201c565b60201c565b50565b60006a636f6e736f6c652e6c6f679050600080835160208501845afa505050565b6200023760201b620010dc17819050919050565b620002416200092a565b565b7f4e487b7100000000000000000000000000000000000000000000000000000000600052602160045260246000fd5b6000604051905090565b600080fd5b600080fd5b600073ffffffffffffffffffffffffffffffffffffffff82169050919050565b6000620002b38262000286565b9050919050565b620002c581620002a6565b8114620002d157600080fd5b50565b600081519050620002e581620002ba565b92915050565b6000819050919050565b6200030081620002eb565b81146200030c57600080fd5b50565b6000815190506200032081620002f5565b92915050565b600080fd5b600080fd5b6000601f19601f8301169050919050565b7f4e487b7100000000000000000000000000000000000000000000000000000000600052604160045260246000fd5b6200037b8262000330565b810181811067ffffffffffffffff821117156200039d576200039c62000341565b5b80604052505050565b6000620003b262000272565b9050620003c0828262000370565b919050565b600067ffffffffffffffff821115620003e357620003e262000341565b5b620003ee8262000330565b9050602081019050919050565b60005b838110156200041b578082015181840152602081019050620003fe565b60008484015250505050565b60006200043e6200043884620003c5565b620003a6565b9050828152602081018484840111156200045d576200045c6200032b565b5b6200046a848285620003fb565b509392505050565b600082601f8301126200048a576200048962000326565b5b81516200049c84826020860162000427565b91505092915050565b600080600080600060a08688031215620004c457620004c36200027c565b5b6000620004d488828901620002d4565b9550506020620004e7888289016200030f565b9450506040620004fa888289016200030f565b935050606086015167ffffffffffffffff8111156200051e576200051d62000281565b5b6200052c8882890162000472565b925050608086015167ffffffffffffffff81111562000550576200054f62000281565b5b6200055e8882890162000472565b9150509295509295909350565b600081519050919050565b7f4e487b7100000000000000000000000000000000000000000000000000000000600052602260045260246000fd5b60006002820490506001821680620005be57607f821691505b602082108103620005d457620005d362000576565b5b50919050565b60008190508160005260206000209050919050565b60006020601f8301049050919050565b600082821b905092915050565b6000600883026200063e7fffffffffffffffffffffffffffffffffffffffffffffffffffffffffffffffff82620005ff565b6200064a8683620005ff565b95508019841693508086168417925050509392505050565b6000819050919050565b60006200068d620006876200068184620002eb565b62000662565b620002eb565b9050919050565b6000819050919050565b620006a9836200066c565b620006c1620006b88262000694565b8484546200060c565b825550505050565b600090565b620006d8620006c9565b620006e58184846200069e565b505050565b5b818110156200070d5762000701600082620006ce565b600181019050620006eb565b5050565b601f8211156200075c576200072681620005da565b6200073184620005ef565b8101602085101562000741578190505b620007596200075085620005ef565b830182620006ea565b50505b505050565b600082821c905092915050565b6000620007816000198460080262000761565b1980831691505092915050565b60006200079c83836200076e565b9150826002028217905092915050565b620007b7826200056b565b67ffffffffffffffff811115620007d357620007d262000341565b5b620007df8254620005a5565b620007ec82828562000711565b600060209050601f8311600181146200082457600084156200080f578287015190505b6200081b85826200078e565b8655506200088b565b601f1984166200083486620005da565b60005b828110156200085e5784890151825560018201915060208501945060208101905062000837565b868310156200087e57848901516200087a601f8916826200076e565b8355505b6001600288020188555050505b505050505050565b600082825260208201905092915050565b6000620008b1826200056b565b620008bd818562000893565b9350620008cf818560208601620003fb565b620008da8162000330565b840191505092915050565b620008f081620002a6565b82525050565b60006040820190508181036000830152620009128185620008a4565b9050620009236020830184620008e5565b9392505050565b7f4e487b7100000000000000000000000000000000000000000000000000000000600052605160045260246000fd5b61208080620009696000396000f3fe6080604052600436106100fe5760003560e01c8063752e19f911610095578063b82c86d611610064578063b82c86d61461031a578063c19d93fb14610345578063c3e20c9f14610370578063c59ee1dc1461039b578063ff3a9c7e146103c6576100fe565b8063752e19f91461025a578063937e09b114610283578063992a7dfb146102ae578063b40141bf146102ef576100fe565b80634e695a37116100d15780634e695a37146101c15780635b6b98b9146101ea5780636f9fb98a1461021357806373e888fd1461023e576100fe565b806302d05d3f1461010357806303c29d581461012e5780631f6d4942146101595780634e260f6f14610196575b600080fd5b34801561010f57600080fd5b506101186103f7565b6040516101259190611127565b60405180910390f35b34801561013a57600080fd5b5061014361041b565b60405161015091906111d2565b60405180910390f35b34801561016557600080fd5b50610180600480360381019061017b9190611246565b6104a9565b60405161018d919061128c565b60405180910390f35b3480156101a257600080fd5b506101ab6104c1565b6040516101b8919061128c565b60405180910390f35b3480156101cd57600080fd5b506101e860048036038101906101e391906112d3565b6104c7565b005b3480156101f657600080fd5b50610211600480360381019061020c9190611435565b6106c7565b005b34801561021f57600080fd5b5061022861091c565b604051610235919061128c565b60405180910390f35b61025860048036038101906102539190611246565b610924565b005b34801561026657600080fd5b50610281600480360381019061027c91906112d3565b610b62565b005b34801561028f57600080fd5b50610298610da7565b6040516102a5919061128c565b60405180910390f35b3480156102ba57600080fd5b506102d560048036038101906102d091906112d3565b610dad565b6040516102e69594939291906114ac565b60405180910390f35b3480156102fb57600080fd5b50610304610e98565b604051610311919061128c565b60405180910390f35b34801561032657600080fd5b5061032f610e9e565b60405161033c919061128c565b60405180910390f35b34801561035157600080fd5b5061035a610ea4565b604051610367919061157d565b60405180910390f35b34801561037c57600080fd5b50610385610eb7565b60405161039291906111d2565b60405180910390f35b3480156103a757600080fd5b506103b0610f45565b6040516103bd919061128c565b60405180910390f35b3480156103d257600080fd5b506103db610f4b565b6040516103ee9796959493929190611598565b60405180910390f35b60008054906101000a900473ffffffffffffffffffffffffffffffffffffffff1681565b6006805461042890611644565b80601f016020809104026020016040519081016040528092919081815260200182805461045490611644565b80156104a15780601f10610476576101008083540402835291602001916104a1565b820191906000526020600020905b81548152906001019060200180831161048457829003601f168201915b505050505081565b60086020528060005260406000206000915090505481565b60045481565b6000600860003373ffffffffffffffffffffffffffffffffffffffff1673ffffffffffffffffffffffffffffffffffffffff1681526020019081526020016000205411610549576040517f08c379a0000000000000000000000000000000000000000000000000000000008152600401610540906116c1565b60405180910390fd5b600060096000838152602001908152602001600020905060008160030160003373ffffffffffffffffffffffffffffffffffffffff1673ffffffffffffffffffffffffffffffffffffffff16815260200190815260200160002054146105e4576040517f08c379a00000000000000000000000000000000000000000000000000000000081526004016105db9061172d565b60405180910390fd5b6000600860003373ffffffffffffffffffffffffffffffffffffffff1673ffffffffffffffffffffffffffffffffffffffff168152602001908152602001600020549050808260030160003373ffffffffffffffffffffffffffffffffffffffff1673ffffffffffffffffffffffffffffffffffffffff1681526020019081526020016000208190555080826002016000828254610682919061177c565b925050819055507fa2925e4595bf873fa82c22a1a89809777347023bf2b502d32710157a5eb8199c33846040516106ba9291906117bf565b60405180910390a1505050565b60008054906101000a900473ffffffffffffffffffffffffffffffffffffffff1673ffffffffffffffffffffffffffffffffffffffff163373ffffffffffffffffffffffffffffffffffffffff1614610755576040517f08c379a000000000000000000000000000000000000000000000000000000000815260040161074c9061185a565b60405180910390fd5b60018081111561076857610767611506565b5b600760009054906101000a900460ff16600181111561078a57610789611506565b5b146107ca576040517f08c379a00000000000000000000000000000000000000000000000000000000081526004016107c190611912565b60405180910390fd5b4781111561080d576040517f08c379a0000000000000000000000000000000000000000000000000000000008152600401610804906119a4565b60405180910390fd5b600060096000600a6000815480929190610826906119c4565b91905055815260200190815260200160002090508281600001908161084b9190611bb8565b5081816001018190555060008054906101000a900473ffffffffffffffffffffffffffffffffffffffff168160040160016101000a81548173ffffffffffffffffffffffffffffffffffffffff021916908373ffffffffffffffffffffffffffffffffffffffff1602179055507f8f1d98cb8ae39006c9203b8574cf20dfcf409ca763f70058154e7e03bacbc7b0600a54848460008054906101000a900473ffffffffffffffffffffffffffffffffffffffff1660405161090f9493929190611cdf565b60405180910390a1505050565b600047905090565b600254341015610969576040517f08c379a000000000000000000000000000000000000000000000000000000000815260040161096090611d9d565b60405180910390fd5b6000600181111561097d5761097c611506565b5b600760009054906101000a900460ff16600181111561099f5761099e611506565b5b14806109dd57506001808111156109b9576109b8611506565b5b600760009054906101000a900460ff1660018111156109db576109da611506565b5b145b610a1c576040517f08c379a0000000000000000000000000000000000000000000000000000000008152600401610a1390611e09565b60405180910390fd5b6000600860008373ffffffffffffffffffffffffffffffffffffffff1673ffffffffffffffffffffffffffffffffffffffff1681526020019081526020016000205403610a7c5760046000815480929190610a76906119c4565b91905055505b34600860008373ffffffffffffffffffffffffffffffffffffffff1673ffffffffffffffffffffffffffffffffffffffff1681526020019081526020016000206000828254610acb919061177c565b925050819055503460036000828254610ae4919061177c565b9250508190555060015460035410610b22576001600760006101000a81548160ff02191690836001811115610b1c57610b1b611506565b5b02179055505b7f5cdc4ab8d637538ead6cc1904d4160343656c8c82bd266635cfd31ac008fffe08134600354604051610b5793929190611e29565b60405180910390a150565b60008054906101000a900473ffffffffffffffffffffffffffffffffffffffff1673ffffffffffffffffffffffffffffffffffffffff163373ffffffffffffffffffffffffffffffffffffffff1614610bf0576040517f08c379a0000000000000000000000000000000000000000000000000000000008152600401610be79061185a565b60405180910390fd5b6000600960008381526020019081526020016000209050600015158160040160009054906101000a900460ff16151514610c5f576040517f08c379a0000000000000000000000000000000000000000000000000000000008152600401610c5690611eac565b60405180910390fd5b6002600354610c6e9190611efb565b81600201541015610cb4576040517f08c379a0000000000000000000000000000000000000000000000000000000008152600401610cab90611fc4565b60405180910390fd5b8060040160019054906101000a900473ffffffffffffffffffffffffffffffffffffffff1673ffffffffffffffffffffffffffffffffffffffff166108fc82600101549081150290604051600060405180830381858888f19350505050158015610d22573d6000803e3d6000fd5b5060018160040160006101000a81548160ff0219169083151502179055507f03bacb971b4d3ffb7dd453ff3b54c68cb149f7b8c5e667889ef5fa01857e87358282600101548360040160019054906101000a900473ffffffffffffffffffffffffffffffffffffffff16604051610d9b93929190611fe4565b60405180910390a15050565b60025481565b6009602052806000526040600020600091509050806000018054610dd090611644565b80601f0160208091040260200160405190810160405280929190818152602001828054610dfc90611644565b8015610e495780601f10610e1e57610100808354040283529160200191610e49565b820191906000526020600020905b815481529060010190602001808311610e2c57829003601f168201915b5050505050908060010154908060020154908060040160009054906101000a900460ff16908060040160019054906101000a900473ffffffffffffffffffffffffffffffffffffffff16905085565b600a5481565b60015481565b600760009054906101000a900460ff1681565b60058054610ec490611644565b80601f0160208091040260200160405190810160405280929190818152602001828054610ef090611644565b8015610f3d5780601f10610f1257610100808354040283529160200191610f3d565b820191906000526020600020905b815481529060010190602001808311610f2057829003601f168201915b505050505081565b60035481565b600080600060608060008060008054906101000a900473ffffffffffffffffffffffffffffffffffffffff1696506001549550600354945060058054610f9090611644565b80601f0160208091040260200160405190810160405280929190818152602001828054610fbc90611644565b80156110095780601f10610fde57610100808354040283529160200191611009565b820191906000526020600020905b815481529060010190602001808311610fec57829003601f168201915b505050505093506006805461101d90611644565b80601f016020809104026020016040519081016040528092919081815260200182805461104990611644565b80156110965780601f1061106b57610100808354040283529160200191611096565b820191906000526020600020905b81548152906001019060200180831161107957829003601f168201915b50505050509250600760009054906101000a900460ff16915047905090919293949596565b60006a636f6e736f6c652e6c6f679050600080835160208501845afa505050565b6110e461201b565b565b600073ffffffffffffffffffffffffffffffffffffffff82169050919050565b6000611111826110e6565b9050919050565b61112181611106565b82525050565b600060208201905061113c6000830184611118565b92915050565b600081519050919050565b600082825260208201905092915050565b60005b8381101561117c578082015181840152602081019050611161565b60008484015250505050565b6000601f19601f8301169050919050565b60006111a482611142565b6111ae818561114d565b93506111be81856020860161115e565b6111c781611188565b840191505092915050565b600060208201905081810360008301526111ec8184611199565b905092915050565b6000604051905090565b600080fd5b600080fd5b6000611213826110e6565b9050919050565b61122381611208565b811461122e57600080fd5b50565b6000813590506112408161121a565b92915050565b60006020828403121561125c5761125b6111fe565b5b600061126a84828501611231565b91505092915050565b6000819050919050565b61128681611273565b82525050565b60006020820190506112a1600083018461127d565b92915050565b6112b081611273565b81146112bb57600080fd5b50565b6000813590506112cd816112a7565b92915050565b6000602082840312156112e9576112e86111fe565b5b60006112f7848285016112be565b91505092915050565b600080fd5b600080fd5b7f4e487b7100000000000000000000000000000000000000000000000000000000600052604160045260246000fd5b61134282611188565b810181811067ffffffffffffffff821117156113615761136061130a565b5b80604052505050565b60006113746111f4565b90506113808282611339565b919050565b600067ffffffffffffffff8211156113a05761139f61130a565b5b6113a982611188565b9050602081019050919050565b82818337600083830152505050565b60006113d86113d384611385565b61136a565b9050828152602081018484840111156113f4576113f3611305565b5b6113ff8482856113b6565b509392505050565b600082601f83011261141c5761141b611300565b5b813561142c8482602086016113c5565b91505092915050565b6000806040838503121561144c5761144b6111fe565b5b600083013567ffffffffffffffff81111561146a57611469611203565b5b61147685828601611407565b9250506020611487858286016112be565b9150509250929050565b60008115159050919050565b6114a681611491565b82525050565b600060a08201905081810360008301526114c68188611199565b90506114d5602083018761127d565b6114e2604083018661127d565b6114ef606083018561149d565b6114fc6080830184611118565b9695505050505050565b7f4e487b7100000000000000000000000000000000000000000000000000000000600052602160045260246000fd5b6002811061154657611545611506565b5b50565b600081905061155782611535565b919050565b600061156782611549565b9050919050565b6115778161155c565b82525050565b6000602082019050611592600083018461156e565b92915050565b600060e0820190506115ad600083018a611118565b6115ba602083018961127d565b6115c7604083018861127d565b81810360608301526115d98187611199565b905081810360808301526115ed8186611199565b90506115fc60a083018561156e565b61160960c083018461127d565b98975050505050505050565b7f4e487b7100000000000000000000000000000000000000000000000000000000600052602260045260246000fd5b6000600282049050600182168061165c57607f821691505b60208210810361166f5761166e611615565b5b50919050565b7f4f6e6c7920636f6e7472696275746f72732063616e20766f7465210000000000600082015250565b60006116ab601b8361114d565b91506116b682611675565b602082019050919050565b600060208201905081810360008301526116da8161169e565b9050919050565b7f596f7520616c726561647920766f746564210000000000000000000000000000600082015250565b600061171760128361114d565b9150611722826116e1565b602082019050919050565b600060208201905081810360008301526117468161170a565b9050919050565b7f4e487b7100000000000000000000000000000000000000000000000000000000600052601160045260246000fd5b600061178782611273565b915061179283611273565b92508282019050808211156117aa576117a961174d565b5b92915050565b6117b981611208565b82525050565b60006040820190506117d460008301856117b0565b6117e1602083018461127d565b9392505050565b7f4f6e6c79207468652063726561746f722063616e20706572666f726d2074686960008201527f73206f7065726174696f6e210000000000000000000000000000000000000000602082015250565b6000611844602c8361114d565b915061184f826117e8565b604082019050919050565b6000602082019050818103600083015261187381611837565b9050919050565b7f50726f6a656374206861736e2774206d65742069747320676f616c207965742e60008201527f20596f752063616e6e6f74207769746864726177207768696c6520746865206360208201527f616d706169676e206973207374696c6c206f6e676f696e672100000000000000604082015250565b60006118fc60598361114d565b91506119078261187a565b606082019050919050565b6000602082019050818103600083015261192b816118ef565b9050919050565b7f52657175657374656420616d6f756e74206578636565647320636f6e7472616360008201527f742062616c616e63650000000000000000000000000000000000000000000000602082015250565b600061198e60298361114d565b915061199982611932565b604082019050919050565b600060208201905081810360008301526119bd81611981565b9050919050565b60006119cf82611273565b91507fffffffffffffffffffffffffffffffffffffffffffffffffffffffffffffffff8203611a0157611a0061174d565b5b600182019050919050565b60008190508160005260206000209050919050565b60006020601f8301049050919050565b600082821b905092915050565b600060088302611a6e7fffffffffffffffffffffffffffffffffffffffffffffffffffffffffffffffff82611a31565b611a788683611a31565b95508019841693508086168417925050509392505050565b6000819050919050565b6000611ab5611ab0611aab84611273565b611a90565b611273565b9050919050565b6000819050919050565b611acf83611a9a565b611ae3611adb82611abc565b848454611a3e565b825550505050565b600090565b611af8611aeb565b611b03818484611ac6565b505050565b5b81811015611b2757611b1c600082611af0565b600181019050611b09565b5050565b601f821115611b6c57611b3d81611a0c565b611b4684611a21565b81016020851015611b55578190505b611b69611b6185611a21565b830182611b08565b50505b505050565b600082821c905092915050565b6000611b8f60001984600802611b71565b1980831691505092915050565b6000611ba88383611b7e565b9150826002028217905092915050565b611bc182611142565b67ffffffffffffffff811115611bda57611bd961130a565b5b611be48254611644565b611bef828285611b2b565b600060209050601f831160018114611c225760008415611c10578287015190505b611c1a8582611b9c565b865550611c82565b601f198416611c3086611a0c565b60005b82811015611c5857848901518255600182019150602085019450602081019050611c33565b86831015611c755784890151611c71601f891682611b7e565b8355505b6001600288020188555050505b505050505050565b6000611ca5611ca0611c9b846110e6565b611a90565b6110e6565b9050919050565b6000611cb782611c8a565b9050919050565b6000611cc982611cac565b9050919050565b611cd981611cbe565b82525050565b6000608082019050611cf4600083018761127d565b8181036020830152611d068186611199565b9050611d15604083018561127d565b611d226060830184611cd0565b95945050505050565b7f416d6f756e74206c657373207468616e20746865206d696e696d756d20636f6e60008201527f747269627574696f6e2100000000000000000000000000000000000000000000602082015250565b6000611d87602a8361114d565b9150611d9282611d2b565b604082019050919050565b60006020820190508181036000830152611db681611d7a565b9050919050565b7f43616e6e6f7420636f6e74726962757465206174207468697320737461676521600082015250565b6000611df360208361114d565b9150611dfe82611dbd565b602082019050919050565b60006020820190508181036000830152611e2281611de6565b9050919050565b6000606082019050611e3e60008301866117b0565b611e4b602083018561127d565b611e58604083018461127d565b949350505050565b7f5265717565737420616c726561647920636f6d706c6574656400000000000000600082015250565b6000611e9660198361114d565b9150611ea182611e60565b602082019050919050565b60006020820190508181036000830152611ec581611e89565b9050919050565b7f4e487b7100000000000000000000000000000000000000000000000000000000600052601260045260246000fd5b6000611f0682611273565b9150611f1183611273565b925082611f2157611f20611ecc565b5b828204905092915050565b7f4174206c656173742035302520636f6e7472696275746f72732028627920616d60008201527f6f756e7429206e65656420746f20766f746520666f722074686973207265717560208201527f6573740000000000000000000000000000000000000000000000000000000000604082015250565b6000611fae60438361114d565b9150611fb982611f2c565b606082019050919050565b60006020820190508181036000830152611fdd81611fa1565b9050919050565b6000606082019050611ff9600083018661127d565b612006602083018561127d565b6120136040830184611cd0565b949350505050565b7f4e487b7100000000000000000000000000000000000000000000000000000000600052605160045260246000fdfea2646970667358221220c7e3084a230cf42c2f492b79282a93bf266aa40c4c4ca40f2e63fdb7d0cf669e64736f6c63430008130033","opcodes":"PUSH1 0x80 PUSH1 0x40 MSTORE PUSH1 0x0 PUSH1 0x3 SSTORE PUSH1 0x0 PUSH1 0x7 PUSH1 0x0 PUSH2 0x100 EXP DUP2 SLOAD DUP2 PUSH1 0xFF MUL NOT AND SWAP1 DUP4 PUSH1 0x1 DUP2 GT ISZERO PUSH3 0x32 JUMPI PUSH3 0x31 PUSH3 0x243 JUMP JUMPDEST JUMPDEST MUL OR SWAP1 SSTORE POP PUSH1 0x0 PUSH1 0xA SSTORE CALLVALUE DUP1 ISZERO PUSH3 0x49 JUMPI PUSH1 0x0 DUP1 REVERT JUMPDEST POP PUSH1 0x40 MLOAD PUSH3 0x29E9 CODESIZE SUB DUP1 PUSH3 0x29E9 DUP4 CODECOPY DUP2 DUP2 ADD PUSH1 0x40 MSTORE DUP2 ADD SWAP1 PUSH3 0x6F SWAP2 SWAP1 PUSH3 0x4A5 JUMP JUMPDEST DUP5 PUSH1 0x0 DUP1 PUSH2 0x100 EXP DUP2 SLOAD DUP2 PUSH20 0xFFFFFFFFFFFFFFFFFFFFFFFFFFFFFFFFFFFFFFFF MUL NOT AND SWAP1 DUP4 PUSH20 0xFFFFFFFFFFFFFFFFFFFFFFFFFFFFFFFFFFFFFFFF AND MUL OR SWAP1 SSTORE POP DUP4 PUSH1 0x1 DUP2 SWAP1 SSTORE POP DUP3 PUSH1 0x2 DUP2 SWAP1 SSTORE POP DUP2 PUSH1 0x5 SWAP1 DUP2 PUSH3 0xCE SWAP2 SWAP1 PUSH3 0x7AC JUMP JUMPDEST POP DUP1 PUSH1 0x6 SWAP1 DUP2 PUSH3 0xE0 SWAP2 SWAP1 PUSH3 0x7AC JUMP JUMPDEST POP PUSH3 0x128 PUSH1 0x40 MLOAD DUP1 PUSH1 0x40 ADD PUSH1 0x40 MSTORE DUP1 PUSH1 0x1C DUP2 MSTORE PUSH1 0x20 ADD PUSH32 0x50726F6A65637420436F6E747261637420437265617465642061743A00000000 DUP2 MSTORE POP ADDRESS PUSH3 0x133 PUSH1 0x20 SHL PUSH1 0x20 SHR JUMP JUMPDEST POP POP POP POP POP PUSH3 0x959 JUMP JUMPDEST PUSH3 0x1D5 DUP3 DUP3 PUSH1 0x40 MLOAD PUSH1 0x24 ADD PUSH3 0x14C SWAP3 SWAP2 SWAP1 PUSH3 0x8F6 JUMP JUMPDEST PUSH1 0x40 MLOAD PUSH1 0x20 DUP2 DUP4 SUB SUB DUP2 MSTORE SWAP1 PUSH1 0x40 MSTORE PUSH32 0x319AF33300000000000000000000000000000000000000000000000000000000 PUSH28 0xFFFFFFFFFFFFFFFFFFFFFFFFFFFFFFFFFFFFFFFFFFFFFFFFFFFFFFFF NOT AND PUSH1 0x20 DUP3 ADD DUP1 MLOAD PUSH28 0xFFFFFFFFFFFFFFFFFFFFFFFFFFFFFFFFFFFFFFFFFFFFFFFFFFFFFFFF DUP4 DUP2 DUP4 AND OR DUP4 MSTORE POP POP POP POP PUSH3 0x1D9 PUSH1 0x20 SHL PUSH1 0x20 SHR JUMP JUMPDEST POP POP JUMP JUMPDEST PUSH3 0x1FF DUP2 PUSH3 0x1FA PUSH3 0x202 PUSH1 0x20 SHL PUSH3 0x10BB OR PUSH3 0x223 PUSH1 0x20 SHL PUSH1 0x20 SHR JUMP JUMPDEST PUSH1 0x20 SHR JUMP JUMPDEST POP JUMP JUMPDEST PUSH1 0x0 PUSH11 0x636F6E736F6C652E6C6F67 SWAP1 POP PUSH1 0x0 DUP1 DUP4 MLOAD PUSH1 0x20 DUP6 ADD DUP5 GAS STATICCALL POP POP POP JUMP JUMPDEST PUSH3 0x237 PUSH1 0x20 SHL PUSH3 0x10DC OR DUP2 SWAP1 POP SWAP2 SWAP1 POP JUMP JUMPDEST PUSH3 0x241 PUSH3 0x92A JUMP JUMPDEST JUMP JUMPDEST PUSH32 0x4E487B7100000000000000000000000000000000000000000000000000000000 PUSH1 0x0 MSTORE PUSH1 0x21 PUSH1 0x4 MSTORE PUSH1 0x24 PUSH1 0x0 REVERT JUMPDEST PUSH1 0x0 PUSH1 0x40 MLOAD SWAP1 POP SWAP1 JUMP JUMPDEST PUSH1 0x0 DUP1 REVERT JUMPDEST PUSH1 0x0 DUP1 REVERT JUMPDEST PUSH1 0x0 PUSH20 0xFFFFFFFFFFFFFFFFFFFFFFFFFFFFFFFFFFFFFFFF DUP3 AND SWAP1 POP SWAP2 SWAP1 POP JUMP JUMPDEST PUSH1 0x0 PUSH3 0x2B3 DUP3 PUSH3 0x286 JUMP JUMPDEST SWAP1 POP SWAP2 SWAP1 POP JUMP JUMPDEST PUSH3 0x2C5 DUP2 PUSH3 0x2A6 JUMP JUMPDEST DUP2 EQ PUSH3 0x2D1 JUMPI PUSH1 0x0 DUP1 REVERT JUMPDEST POP JUMP JUMPDEST PUSH1 0x0 DUP2 MLOAD SWAP1 POP PUSH3 0x2E5 DUP2 PUSH3 0x2BA JUMP JUMPDEST SWAP3 SWAP2 POP POP JUMP JUMPDEST PUSH1 0x0 DUP2 SWAP1 POP SWAP2 SWAP1 POP JUMP JUMPDEST PUSH3 0x300 DUP2 PUSH3 0x2EB JUMP JUMPDEST DUP2 EQ PUSH3 0x30C JUMPI PUSH1 0x0 DUP1 REVERT JUMPDEST POP JUMP JUMPDEST PUSH1 0x0 DUP2 MLOAD SWAP1 POP PUSH3 0x320 DUP2 PUSH3 0x2F5 JUMP JUMPDEST SWAP3 SWAP2 POP POP JUMP JUMPDEST PUSH1 0x0 DUP1 REVERT JUMPDEST PUSH1 0x0 DUP1 REVERT JUMPDEST PUSH1 0x0 PUSH1 0x1F NOT PUSH1 0x1F DUP4 ADD AND SWAP1 POP SWAP2 SWAP1 POP JUMP JUMPDEST PUSH32 0x4E487B7100000000000000000000000000000000000000000000000000000000 PUSH1 0x0 MSTORE PUSH1 0x41 PUSH1 0x4 MSTORE PUSH1 0x24 PUSH1 0x0 REVERT JUMPDEST PUSH3 0x37B DUP3 PUSH3 0x330 JUMP JUMPDEST DUP2 ADD DUP2 DUP2 LT PUSH8 0xFFFFFFFFFFFFFFFF DUP3 GT OR ISZERO PUSH3 0x39D JUMPI PUSH3 0x39C PUSH3 0x341 JUMP JUMPDEST JUMPDEST DUP1 PUSH1 0x40 MSTORE POP POP POP JUMP JUMPDEST PUSH1 0x0 PUSH3 0x3B2 PUSH3 0x272 JUMP JUMPDEST SWAP1 POP PUSH3 0x3C0 DUP3 DUP3 PUSH3 0x370 JUMP JUMPDEST SWAP2 SWAP1 POP JUMP JUMPDEST PUSH1 0x0 PUSH8 0xFFFFFFFFFFFFFFFF DUP3 GT ISZERO PUSH3 0x3E3 JUMPI PUSH3 0x3E2 PUSH3 0x341 JUMP JUMPDEST JUMPDEST PUSH3 0x3EE DUP3 PUSH3 0x330 JUMP JUMPDEST SWAP1 POP PUSH1 0x20 DUP2 ADD SWAP1 POP SWAP2 SWAP1 POP JUMP JUMPDEST PUSH1 0x0 JUMPDEST DUP4 DUP2 LT ISZERO PUSH3 0x41B JUMPI DUP1 DUP3 ADD MLOAD DUP2 DUP5 ADD MSTORE PUSH1 0x20 DUP2 ADD SWAP1 POP PUSH3 0x3FE JUMP JUMPDEST PUSH1 0x0 DUP5 DUP5 ADD MSTORE POP POP POP POP JUMP JUMPDEST PUSH1 0x0 PUSH3 0x43E PUSH3 0x438 DUP5 PUSH3 0x3C5 JUMP JUMPDEST PUSH3 0x3A6 JUMP JUMPDEST SWAP1 POP DUP3 DUP2 MSTORE PUSH1 0x20 DUP2 ADD DUP5 DUP5 DUP5 ADD GT ISZERO PUSH3 0x45D JUMPI PUSH3 0x45C PUSH3 0x32B JUMP JUMPDEST JUMPDEST PUSH3 0x46A DUP5 DUP3 DUP6 PUSH3 0x3FB JUMP JUMPDEST POP SWAP4 SWAP3 POP POP POP JUMP JUMPDEST PUSH1 0x0 DUP3 PUSH1 0x1F DUP4 ADD SLT PUSH3 0x48A JUMPI PUSH3 0x489 PUSH3 0x326 JUMP JUMPDEST JUMPDEST DUP2 MLOAD PUSH3 0x49C DUP5 DUP3 PUSH1 0x20 DUP7 ADD PUSH3 0x427 JUMP JUMPDEST SWAP2 POP POP SWAP3 SWAP2 POP POP JUMP JUMPDEST PUSH1 0x0 DUP1 PUSH1 0x0 DUP1 PUSH1 0x0 PUSH1 0xA0 DUP7 DUP9 SUB SLT ISZERO PUSH3 0x4C4 JUMPI PUSH3 0x4C3 PUSH3 0x27C JUMP JUMPDEST JUMPDEST PUSH1 0x0 PUSH3 0x4D4 DUP9 DUP3 DUP10 ADD PUSH3 0x2D4 JUMP JUMPDEST SWAP6 POP POP PUSH1 0x20 PUSH3 0x4E7 DUP9 DUP3 DUP10 ADD PUSH3 0x30F JUMP JUMPDEST SWAP5 POP POP PUSH1 0x40 PUSH3 0x4FA DUP9 DUP3 DUP10 ADD PUSH3 0x30F JUMP JUMPDEST SWAP4 POP POP PUSH1 0x60 DUP7 ADD MLOAD PUSH8 0xFFFFFFFFFFFFFFFF DUP2 GT ISZERO PUSH3 0x51E JUMPI PUSH3 0x51D PUSH3 0x281 JUMP JUMPDEST JUMPDEST PUSH3 0x52C DUP9 DUP3 DUP10 ADD PUSH3 0x472 JUMP JUMPDEST SWAP3 POP POP PUSH1 0x80 DUP7 ADD MLOAD PUSH8 0xFFFFFFFFFFFFFFFF DUP2 GT ISZERO PUSH3 0x550 JUMPI PUSH3 0x54F PUSH3 0x281 JUMP JUMPDEST JUMPDEST PUSH3 0x55E DUP9 DUP3 DUP10 ADD PUSH3 0x472 JUMP JUMPDEST SWAP2 POP POP SWAP3 SWAP6 POP SWAP3 SWAP6 SWAP1 SWAP4 POP JUMP JUMPDEST PUSH1 0x0 DUP2 MLOAD SWAP1 POP SWAP2 SWAP1 POP JUMP JUMPDEST PUSH32 0x4E487B7100000000000000000000000000000000000000000000000000000000 PUSH1 0x0 MSTORE PUSH1 0x22 PUSH1 0x4 MSTORE PUSH1 0x24 PUSH1 0x0 REVERT JUMPDEST PUSH1 0x0 PUSH1 0x2 DUP3 DIV SWAP1 POP PUSH1 0x1 DUP3 AND DUP1 PUSH3 0x5BE JUMPI PUSH1 0x7F DUP3 AND SWAP2 POP JUMPDEST PUSH1 0x20 DUP3 LT DUP2 SUB PUSH3 0x5D4 JUMPI PUSH3 0x5D3 PUSH3 0x576 JUMP JUMPDEST JUMPDEST POP SWAP2 SWAP1 POP JUMP JUMPDEST PUSH1 0x0 DUP2 SWAP1 POP DUP2 PUSH1 0x0 MSTORE PUSH1 0x20 PUSH1 0x0 KECCAK256 SWAP1 POP SWAP2 SWAP1 POP JUMP JUMPDEST PUSH1 0x0 PUSH1 0x20 PUSH1 0x1F DUP4 ADD DIV SWAP1 POP SWAP2 SWAP1 POP JUMP JUMPDEST PUSH1 0x0 DUP3 DUP3 SHL SWAP1 POP SWAP3 SWAP2 POP POP JUMP JUMPDEST PUSH1 0x0 PUSH1 0x8 DUP4 MUL PUSH3 0x63E PUSH32 0xFFFFFFFFFFFFFFFFFFFFFFFFFFFFFFFFFFFFFFFFFFFFFFFFFFFFFFFFFFFFFFFF DUP3 PUSH3 0x5FF JUMP JUMPDEST PUSH3 0x64A DUP7 DUP4 PUSH3 0x5FF JUMP JUMPDEST SWAP6 POP DUP1 NOT DUP5 AND SWAP4 POP DUP1 DUP7 AND DUP5 OR SWAP3 POP POP POP SWAP4 SWAP3 POP POP POP JUMP JUMPDEST PUSH1 0x0 DUP2 SWAP1 POP SWAP2 SWAP1 POP JUMP JUMPDEST PUSH1 0x0 PUSH3 0x68D PUSH3 0x687 PUSH3 0x681 DUP5 PUSH3 0x2EB JUMP JUMPDEST PUSH3 0x662 JUMP JUMPDEST PUSH3 0x2EB JUMP JUMPDEST SWAP1 POP SWAP2 SWAP1 POP JUMP JUMPDEST PUSH1 0x0 DUP2 SWAP1 POP SWAP2 SWAP1 POP JUMP JUMPDEST PUSH3 0x6A9 DUP4 PUSH3 0x66C JUMP JUMPDEST PUSH3 0x6C1 PUSH3 0x6B8 DUP3 PUSH3 0x694 JUMP JUMPDEST DUP5 DUP5 SLOAD PUSH3 0x60C JUMP JUMPDEST DUP3 SSTORE POP POP POP POP JUMP JUMPDEST PUSH1 0x0 SWAP1 JUMP JUMPDEST PUSH3 0x6D8 PUSH3 0x6C9 JUMP JUMPDEST PUSH3 0x6E5 DUP2 DUP5 DUP5 PUSH3 0x69E JUMP JUMPDEST POP POP POP JUMP JUMPDEST JUMPDEST DUP2 DUP2 LT ISZERO PUSH3 0x70D JUMPI PUSH3 0x701 PUSH1 0x0 DUP3 PUSH3 0x6CE JUMP JUMPDEST PUSH1 0x1 DUP2 ADD SWAP1 POP PUSH3 0x6EB JUMP JUMPDEST POP POP JUMP JUMPDEST PUSH1 0x1F DUP3 GT ISZERO PUSH3 0x75C JUMPI PUSH3 0x726 DUP2 PUSH3 0x5DA JUMP JUMPDEST PUSH3 0x731 DUP5 PUSH3 0x5EF JUMP JUMPDEST DUP2 ADD PUSH1 0x20 DUP6 LT ISZERO PUSH3 0x741 JUMPI DUP2 SWAP1 POP JUMPDEST PUSH3 0x759 PUSH3 0x750 DUP6 PUSH3 0x5EF JUMP JUMPDEST DUP4 ADD DUP3 PUSH3 0x6EA JUMP JUMPDEST POP POP JUMPDEST POP POP POP JUMP JUMPDEST PUSH1 0x0 DUP3 DUP3 SHR SWAP1 POP SWAP3 SWAP2 POP POP JUMP JUMPDEST PUSH1 0x0 PUSH3 0x781 PUSH1 0x0 NOT DUP5 PUSH1 0x8 MUL PUSH3 0x761 JUMP JUMPDEST NOT DUP1 DUP4 AND SWAP2 POP POP SWAP3 SWAP2 POP POP JUMP JUMPDEST PUSH1 0x0 PUSH3 0x79C DUP4 DUP4 PUSH3 0x76E JUMP JUMPDEST SWAP2 POP DUP3 PUSH1 0x2 MUL DUP3 OR SWAP1 POP SWAP3 SWAP2 POP POP JUMP JUMPDEST PUSH3 0x7B7 DUP3 PUSH3 0x56B JUMP JUMPDEST PUSH8 0xFFFFFFFFFFFFFFFF DUP2 GT ISZERO PUSH3 0x7D3 JUMPI PUSH3 0x7D2 PUSH3 0x341 JUMP JUMPDEST JUMPDEST PUSH3 0x7DF DUP3 SLOAD PUSH3 0x5A5 JUMP JUMPDEST PUSH3 0x7EC DUP3 DUP3 DUP6 PUSH3 0x711 JUMP JUMPDEST PUSH1 0x0 PUSH1 0x20 SWAP1 POP PUSH1 0x1F DUP4 GT PUSH1 0x1 DUP2 EQ PUSH3 0x824 JUMPI PUSH1 0x0 DUP5 ISZERO PUSH3 0x80F JUMPI DUP3 DUP8 ADD MLOAD SWAP1 POP JUMPDEST PUSH3 0x81B DUP6 DUP3 PUSH3 0x78E JUMP JUMPDEST DUP7 SSTORE POP PUSH3 0x88B JUMP JUMPDEST PUSH1 0x1F NOT DUP5 AND PUSH3 0x834 DUP7 PUSH3 0x5DA JUMP JUMPDEST PUSH1 0x0 JUMPDEST DUP3 DUP2 LT ISZERO PUSH3 0x85E JUMPI DUP5 DUP10 ADD MLOAD DUP3 SSTORE PUSH1 0x1 DUP3 ADD SWAP2 POP PUSH1 0x20 DUP6 ADD SWAP5 POP PUSH1 0x20 DUP2 ADD SWAP1 POP PUSH3 0x837 JUMP JUMPDEST DUP7 DUP4 LT ISZERO PUSH3 0x87E JUMPI DUP5 DUP10 ADD MLOAD PUSH3 0x87A PUSH1 0x1F DUP10 AND DUP3 PUSH3 0x76E JUMP JUMPDEST DUP4 SSTORE POP JUMPDEST PUSH1 0x1 PUSH1 0x2 DUP9 MUL ADD DUP9 SSTORE POP POP POP JUMPDEST POP POP POP POP POP POP JUMP JUMPDEST PUSH1 0x0 DUP3 DUP3 MSTORE PUSH1 0x20 DUP3 ADD SWAP1 POP SWAP3 SWAP2 POP POP JUMP JUMPDEST PUSH1 0x0 PUSH3 0x8B1 DUP3 PUSH3 0x56B JUMP JUMPDEST PUSH3 0x8BD DUP2 DUP6 PUSH3 0x893 JUMP JUMPDEST SWAP4 POP PUSH3 0x8CF DUP2 DUP6 PUSH1 0x20 DUP7 ADD PUSH3 0x3FB JUMP JUMPDEST PUSH3 0x8DA DUP2 PUSH3 0x330 JUMP JUMPDEST DUP5 ADD SWAP2 POP POP SWAP3 SWAP2 POP POP JUMP JUMPDEST PUSH3 0x8F0 DUP2 PUSH3 0x2A6 JUMP JUMPDEST DUP3 MSTORE POP POP JUMP JUMPDEST PUSH1 0x0 PUSH1 0x40 DUP3 ADD SWAP1 POP DUP2 DUP2 SUB PUSH1 0x0 DUP4 ADD MSTORE PUSH3 0x912 DUP2 DUP6 PUSH3 0x8A4 JUMP JUMPDEST SWAP1 POP PUSH3 0x923 PUSH1 0x20 DUP4 ADD DUP5 PUSH3 0x8E5 JUMP JUMPDEST SWAP4 SWAP3 POP POP POP JUMP JUMPDEST PUSH32 0x4E487B7100000000000000000000000000000000000000000000000000000000 PUSH1 0x0 MSTORE PUSH1 0x51 PUSH1 0x4 MSTORE PUSH1 0x24 PUSH1 0x0 REVERT JUMPDEST PUSH2 0x2080 DUP1 PUSH3 0x969 PUSH1 0x0 CODECOPY PUSH1 0x0 RETURN INVALID PUSH1 0x80 PUSH1 0x40 MSTORE PUSH1 0x4 CALLDATASIZE LT PUSH2 0xFE JUMPI PUSH1 0x0 CALLDATALOAD PUSH1 0xE0 SHR DUP1 PUSH4 0x752E19F9 GT PUSH2 0x95 JUMPI DUP1 PUSH4 0xB82C86D6 GT PUSH2 0x64 JUMPI DUP1 PUSH4 0xB82C86D6 EQ PUSH2 0x31A JUMPI DUP1 PUSH4 0xC19D93FB EQ PUSH2 0x345 JUMPI DUP1 PUSH4 0xC3E20C9F EQ PUSH2 0x370 JUMPI DUP1 PUSH4 0xC59EE1DC EQ PUSH2 0x39B JUMPI DUP1 PUSH4 0xFF3A9C7E EQ PUSH2 0x3C6 JUMPI PUSH2 0xFE JUMP JUMPDEST DUP1 PUSH4 0x752E19F9 EQ PUSH2 0x25A JUMPI DUP1 PUSH4 0x937E09B1 EQ PUSH2 0x283 JUMPI DUP1 PUSH4 0x992A7DFB EQ PUSH2 0x2AE JUMPI DUP1 PUSH4 0xB40141BF EQ PUSH2 0x2EF JUMPI PUSH2 0xFE JUMP JUMPDEST DUP1 PUSH4 0x4E695A37 GT PUSH2 0xD1 JUMPI DUP1 PUSH4 0x4E695A37 EQ PUSH2 0x1C1 JUMPI DUP1 PUSH4 0x5B6B98B9 EQ PUSH2 0x1EA JUMPI DUP1 PUSH4 0x6F9FB98A EQ PUSH2 0x213 JUMPI DUP1 PUSH4 0x73E888FD EQ PUSH2 0x23E JUMPI PUSH2 0xFE JUMP JUMPDEST DUP1 PUSH4 0x2D05D3F EQ PUSH2 0x103 JUMPI DUP1 PUSH4 0x3C29D58 EQ PUSH2 0x12E JUMPI DUP1 PUSH4 0x1F6D4942 EQ PUSH2 0x159 JUMPI DUP1 PUSH4 0x4E260F6F EQ PUSH2 0x196 JUMPI JUMPDEST PUSH1 0x0 DUP1 REVERT JUMPDEST CALLVALUE DUP1 ISZERO PUSH2 0x10F JUMPI PUSH1 0x0 DUP1 REVERT JUMPDEST POP PUSH2 0x118 PUSH2 0x3F7 JUMP JUMPDEST PUSH1 0x40 MLOAD PUSH2 0x125 SWAP2 SWAP1 PUSH2 0x1127 JUMP JUMPDEST PUSH1 0x40 MLOAD DUP1 SWAP2 SUB SWAP1 RETURN JUMPDEST CALLVALUE DUP1 ISZERO PUSH2 0x13A JUMPI PUSH1 0x0 DUP1 REVERT JUMPDEST POP PUSH2 0x143 PUSH2 0x41B JUMP JUMPDEST PUSH1 0x40 MLOAD PUSH2 0x150 SWAP2 SWAP1 PUSH2 0x11D2 JUMP JUMPDEST PUSH1 0x40 MLOAD DUP1 SWAP2 SUB SWAP1 RETURN JUMPDEST CALLVALUE DUP1 ISZERO PUSH2 0x165 JUMPI PUSH1 0x0 DUP1 REVERT JUMPDEST POP PUSH2 0x180 PUSH1 0x4 DUP1 CALLDATASIZE SUB DUP2 ADD SWAP1 PUSH2 0x17B SWAP2 SWAP1 PUSH2 0x1246 JUMP JUMPDEST PUSH2 0x4A9 JUMP JUMPDEST PUSH1 0x40 MLOAD PUSH2 0x18D SWAP2 SWAP1 PUSH2 0x128C JUMP JUMPDEST PUSH1 0x40 MLOAD DUP1 SWAP2 SUB SWAP1 RETURN JUMPDEST CALLVALUE DUP1 ISZERO PUSH2 0x1A2 JUMPI PUSH1 0x0 DUP1 REVERT JUMPDEST POP PUSH2 0x1AB PUSH2 0x4C1 JUMP JUMPDEST PUSH1 0x40 MLOAD PUSH2 0x1B8 SWAP2 SWAP1 PUSH2 0x128C JUMP JUMPDEST PUSH1 0x40 MLOAD DUP1 SWAP2 SUB SWAP1 RETURN JUMPDEST CALLVALUE DUP1 ISZERO PUSH2 0x1CD JUMPI PUSH1 0x0 DUP1 REVERT JUMPDEST POP PUSH2 0x1E8 PUSH1 0x4 DUP1 CALLDATASIZE SUB DUP2 ADD SWAP1 PUSH2 0x1E3 SWAP2 SWAP1 PUSH2 0x12D3 JUMP JUMPDEST PUSH2 0x4C7 JUMP JUMPDEST STOP JUMPDEST CALLVALUE DUP1 ISZERO PUSH2 0x1F6 JUMPI PUSH1 0x0 DUP1 REVERT JUMPDEST POP PUSH2 0x211 PUSH1 0x4 DUP1 CALLDATASIZE SUB DUP2 ADD SWAP1 PUSH2 0x20C SWAP2 SWAP1 PUSH2 0x1435 JUMP JUMPDEST PUSH2 0x6C7 JUMP JUMPDEST STOP JUMPDEST CALLVALUE DUP1 ISZERO PUSH2 0x21F JUMPI PUSH1 0x0 DUP1 REVERT JUMPDEST POP PUSH2 0x228 PUSH2 0x91C JUMP JUMPDEST PUSH1 0x40 MLOAD PUSH2 0x235 SWAP2 SWAP1 PUSH2 0x128C JUMP JUMPDEST PUSH1 0x40 MLOAD DUP1 SWAP2 SUB SWAP1 RETURN JUMPDEST PUSH2 0x258 PUSH1 0x4 DUP1 CALLDATASIZE SUB DUP2 ADD SWAP1 PUSH2 0x253 SWAP2 SWAP1 PUSH2 0x1246 JUMP JUMPDEST PUSH2 0x924 JUMP JUMPDEST STOP JUMPDEST CALLVALUE DUP1 ISZERO PUSH2 0x266 JUMPI PUSH1 0x0 DUP1 REVERT JUMPDEST POP PUSH2 0x281 PUSH1 0x4 DUP1 CALLDATASIZE SUB DUP2 ADD SWAP1 PUSH2 0x27C SWAP2 SWAP1 PUSH2 0x12D3 JUMP JUMPDEST PUSH2 0xB62 JUMP JUMPDEST STOP JUMPDEST CALLVALUE DUP1 ISZERO PUSH2 0x28F JUMPI PUSH1 0x0 DUP1 REVERT JUMPDEST POP PUSH2 0x298 PUSH2 0xDA7 JUMP JUMPDEST PUSH1 0x40 MLOAD PUSH2 0x2A5 SWAP2 SWAP1 PUSH2 0x128C JUMP JUMPDEST PUSH1 0x40 MLOAD DUP1 SWAP2 SUB SWAP1 RETURN JUMPDEST CALLVALUE DUP1 ISZERO PUSH2 0x2BA JUMPI PUSH1 0x0 DUP1 REVERT JUMPDEST POP PUSH2 0x2D5 PUSH1 0x4 DUP1 CALLDATASIZE SUB DUP2 ADD SWAP1 PUSH2 0x2D0 SWAP2 SWAP1 PUSH2 0x12D3 JUMP JUMPDEST PUSH2 0xDAD JUMP JUMPDEST PUSH1 0x40 MLOAD PUSH2 0x2E6 SWAP6 SWAP5 SWAP4 SWAP3 SWAP2 SWAP1 PUSH2 0x14AC JUMP JUMPDEST PUSH1 0x40 MLOAD DUP1 SWAP2 SUB SWAP1 RETURN JUMPDEST CALLVALUE DUP1 ISZERO PUSH2 0x2FB JUMPI PUSH1 0x0 DUP1 REVERT JUMPDEST POP PUSH2 0x304 PUSH2 0xE98 JUMP JUMPDEST PUSH1 0x40 MLOAD PUSH2 0x311 SWAP2 SWAP1 PUSH2 0x128C JUMP JUMPDEST PUSH1 0x40 MLOAD DUP1 SWAP2 SUB SWAP1 RETURN JUMPDEST CALLVALUE DUP1 ISZERO PUSH2 0x326 JUMPI PUSH1 0x0 DUP1 REVERT JUMPDEST POP PUSH2 0x32F PUSH2 0xE9E JUMP JUMPDEST PUSH1 0x40 MLOAD PUSH2 0x33C SWAP2 SWAP1 PUSH2 0x128C JUMP JUMPDEST PUSH1 0x40 MLOAD DUP1 SWAP2 SUB SWAP1 RETURN JUMPDEST CALLVALUE DUP1 ISZERO PUSH2 0x351 JUMPI PUSH1 0x0 DUP1 REVERT JUMPDEST POP PUSH2 0x35A PUSH2 0xEA4 JUMP JUMPDEST PUSH1 0x40 MLOAD PUSH2 0x367 SWAP2 SWAP1 PUSH2 0x157D JUMP JUMPDEST PUSH1 0x40 MLOAD DUP1 SWAP2 SUB SWAP1 RETURN JUMPDEST CALLVALUE DUP1 ISZERO PUSH2 0x37C JUMPI PUSH1 0x0 DUP1 REVERT JUMPDEST POP PUSH2 0x385 PUSH2 0xEB7 JUMP JUMPDEST PUSH1 0x40 MLOAD PUSH2 0x392 SWAP2 SWAP1 PUSH2 0x11D2 JUMP JUMPDEST PUSH1 0x40 MLOAD DUP1 SWAP2 SUB SWAP1 RETURN JUMPDEST CALLVALUE DUP1 ISZERO PUSH2 0x3A7 JUMPI PUSH1 0x0 DUP1 REVERT JUMPDEST POP PUSH2 0x3B0 PUSH2 0xF45 JUMP JUMPDEST PUSH1 0x40 MLOAD PUSH2 0x3BD SWAP2 SWAP1 PUSH2 0x128C JUMP JUMPDEST PUSH1 0x40 MLOAD DUP1 SWAP2 SUB SWAP1 RETURN JUMPDEST CALLVALUE DUP1 ISZERO PUSH2 0x3D2 JUMPI PUSH1 0x0 DUP1 REVERT JUMPDEST POP PUSH2 0x3DB PUSH2 0xF4B JUMP JUMPDEST PUSH1 0x40 MLOAD PUSH2 0x3EE SWAP8 SWAP7 SWAP6 SWAP5 SWAP4 SWAP3 SWAP2 SWAP1 PUSH2 0x1598 JUMP JUMPDEST PUSH1 0x40 MLOAD DUP1 SWAP2 SUB SWAP1 RETURN JUMPDEST PUSH1 0x0 DUP1 SLOAD SWAP1 PUSH2 0x100 EXP SWAP1 DIV PUSH20 0xFFFFFFFFFFFFFFFFFFFFFFFFFFFFFFFFFFFFFFFF AND DUP2 JUMP JUMPDEST PUSH1 0x6 DUP1 SLOAD PUSH2 0x428 SWAP1 PUSH2 0x1644 JUMP JUMPDEST DUP1 PUSH1 0x1F ADD PUSH1 0x20 DUP1 SWAP2 DIV MUL PUSH1 0x20 ADD PUSH1 0x40 MLOAD SWAP1 DUP2 ADD PUSH1 0x40 MSTORE DUP1 SWAP3 SWAP2 SWAP1 DUP2 DUP2 MSTORE PUSH1 0x20 ADD DUP3 DUP1 SLOAD PUSH2 0x454 SWAP1 PUSH2 0x1644 JUMP JUMPDEST DUP1 ISZERO PUSH2 0x4A1 JUMPI DUP1 PUSH1 0x1F LT PUSH2 0x476 JUMPI PUSH2 0x100 DUP1 DUP4 SLOAD DIV MUL DUP4 MSTORE SWAP2 PUSH1 0x20 ADD SWAP2 PUSH2 0x4A1 JUMP JUMPDEST DUP3 ADD SWAP2 SWAP1 PUSH1 0x0 MSTORE PUSH1 0x20 PUSH1 0x0 KECCAK256 SWAP1 JUMPDEST DUP2 SLOAD DUP2 MSTORE SWAP1 PUSH1 0x1 ADD SWAP1 PUSH1 0x20 ADD DUP1 DUP4 GT PUSH2 0x484 JUMPI DUP3 SWAP1 SUB PUSH1 0x1F AND DUP3 ADD SWAP2 JUMPDEST POP POP POP POP POP DUP2 JUMP JUMPDEST PUSH1 0x8 PUSH1 0x20 MSTORE DUP1 PUSH1 0x0 MSTORE PUSH1 0x40 PUSH1 0x0 KECCAK256 PUSH1 0x0 SWAP2 POP SWAP1 POP SLOAD DUP2 JUMP JUMPDEST PUSH1 0x4 SLOAD DUP2 JUMP JUMPDEST PUSH1 0x0 PUSH1 0x8 PUSH1 0x0 CALLER PUSH20 0xFFFFFFFFFFFFFFFFFFFFFFFFFFFFFFFFFFFFFFFF AND PUSH20 0xFFFFFFFFFFFFFFFFFFFFFFFFFFFFFFFFFFFFFFFF AND DUP2 MSTORE PUSH1 0x20 ADD SWAP1 DUP2 MSTORE PUSH1 0x20 ADD PUSH1 0x0 KECCAK256 SLOAD GT PUSH2 0x549 JUMPI PUSH1 0x40 MLOAD PUSH32 0x8C379A000000000000000000000000000000000000000000000000000000000 DUP2 MSTORE PUSH1 0x4 ADD PUSH2 0x540 SWAP1 PUSH2 0x16C1 JUMP JUMPDEST PUSH1 0x40 MLOAD DUP1 SWAP2 SUB SWAP1 REVERT JUMPDEST PUSH1 0x0 PUSH1 0x9 PUSH1 0x0 DUP4 DUP2 MSTORE PUSH1 0x20 ADD SWAP1 DUP2 MSTORE PUSH1 0x20 ADD PUSH1 0x0 KECCAK256 SWAP1 POP PUSH1 0x0 DUP2 PUSH1 0x3 ADD PUSH1 0x0 CALLER PUSH20 0xFFFFFFFFFFFFFFFFFFFFFFFFFFFFFFFFFFFFFFFF AND PUSH20 0xFFFFFFFFFFFFFFFFFFFFFFFFFFFFFFFFFFFFFFFF AND DUP2 MSTORE PUSH1 0x20 ADD SWAP1 DUP2 MSTORE PUSH1 0x20 ADD PUSH1 0x0 KECCAK256 SLOAD EQ PUSH2 0x5E4 JUMPI PUSH1 0x40 MLOAD PUSH32 0x8C379A000000000000000000000000000000000000000000000000000000000 DUP2 MSTORE PUSH1 0x4 ADD PUSH2 0x5DB SWAP1 PUSH2 0x172D JUMP JUMPDEST PUSH1 0x40 MLOAD DUP1 SWAP2 SUB SWAP1 REVERT JUMPDEST PUSH1 0x0 PUSH1 0x8 PUSH1 0x0 CALLER PUSH20 0xFFFFFFFFFFFFFFFFFFFFFFFFFFFFFFFFFFFFFFFF AND PUSH20 0xFFFFFFFFFFFFFFFFFFFFFFFFFFFFFFFFFFFFFFFF AND DUP2 MSTORE PUSH1 0x20 ADD SWAP1 DUP2 MSTORE PUSH1 0x20 ADD PUSH1 0x0 KECCAK256 SLOAD SWAP1 POP DUP1 DUP3 PUSH1 0x3 ADD PUSH1 0x0 CALLER PUSH20 0xFFFFFFFFFFFFFFFFFFFFFFFFFFFFFFFFFFFFFFFF AND PUSH20 0xFFFFFFFFFFFFFFFFFFFFFFFFFFFFFFFFFFFFFFFF AND DUP2 MSTORE PUSH1 0x20 ADD SWAP1 DUP2 MSTORE PUSH1 0x20 ADD PUSH1 0x0 KECCAK256 DUP2 SWAP1 SSTORE POP DUP1 DUP3 PUSH1 0x2 ADD PUSH1 0x0 DUP3 DUP3 SLOAD PUSH2 0x682 SWAP2 SWAP1 PUSH2 0x177C JUMP JUMPDEST SWAP3 POP POP DUP2 SWAP1 SSTORE POP PUSH32 0xA2925E4595BF873FA82C22A1A89809777347023BF2B502D32710157A5EB8199C CALLER DUP5 PUSH1 0x40 MLOAD PUSH2 0x6BA SWAP3 SWAP2 SWAP1 PUSH2 0x17BF JUMP JUMPDEST PUSH1 0x40 MLOAD DUP1 SWAP2 SUB SWAP1 LOG1 POP POP POP JUMP JUMPDEST PUSH1 0x0 DUP1 SLOAD SWAP1 PUSH2 0x100 EXP SWAP1 DIV PUSH20 0xFFFFFFFFFFFFFFFFFFFFFFFFFFFFFFFFFFFFFFFF AND PUSH20 0xFFFFFFFFFFFFFFFFFFFFFFFFFFFFFFFFFFFFFFFF AND CALLER PUSH20 0xFFFFFFFFFFFFFFFFFFFFFFFFFFFFFFFFFFFFFFFF AND EQ PUSH2 0x755 JUMPI PUSH1 0x40 MLOAD PUSH32 0x8C379A000000000000000000000000000000000000000000000000000000000 DUP2 MSTORE PUSH1 0x4 ADD PUSH2 0x74C SWAP1 PUSH2 0x185A JUMP JUMPDEST PUSH1 0x40 MLOAD DUP1 SWAP2 SUB SWAP1 REVERT JUMPDEST PUSH1 0x1 DUP1 DUP2 GT ISZERO PUSH2 0x768 JUMPI PUSH2 0x767 PUSH2 0x1506 JUMP JUMPDEST JUMPDEST PUSH1 0x7 PUSH1 0x0 SWAP1 SLOAD SWAP1 PUSH2 0x100 EXP SWAP1 DIV PUSH1 0xFF AND PUSH1 0x1 DUP2 GT ISZERO PUSH2 0x78A JUMPI PUSH2 0x789 PUSH2 0x1506 JUMP JUMPDEST JUMPDEST EQ PUSH2 0x7CA JUMPI PUSH1 0x40 MLOAD PUSH32 0x8C379A000000000000000000000000000000000000000000000000000000000 DUP2 MSTORE PUSH1 0x4 ADD PUSH2 0x7C1 SWAP1 PUSH2 0x1912 JUMP JUMPDEST PUSH1 0x40 MLOAD DUP1 SWAP2 SUB SWAP1 REVERT JUMPDEST SELFBALANCE DUP2 GT ISZERO PUSH2 0x80D JUMPI PUSH1 0x40 MLOAD PUSH32 0x8C379A000000000000000000000000000000000000000000000000000000000 DUP2 MSTORE PUSH1 0x4 ADD PUSH2 0x804 SWAP1 PUSH2 0x19A4 JUMP JUMPDEST PUSH1 0x40 MLOAD DUP1 SWAP2 SUB SWAP1 REVERT JUMPDEST PUSH1 0x0 PUSH1 0x9 PUSH1 0x0 PUSH1 0xA PUSH1 0x0 DUP2 SLOAD DUP1 SWAP3 SWAP2 SWAP1 PUSH2 0x826 SWAP1 PUSH2 0x19C4 JUMP JUMPDEST SWAP2 SWAP1 POP SSTORE DUP2 MSTORE PUSH1 0x20 ADD SWAP1 DUP2 MSTORE PUSH1 0x20 ADD PUSH1 0x0 KECCAK256 SWAP1 POP DUP3 DUP2 PUSH1 0x0 ADD SWAP1 DUP2 PUSH2 0x84B SWAP2 SWAP1 PUSH2 0x1BB8 JUMP JUMPDEST POP DUP2 DUP2 PUSH1 0x1 ADD DUP2 SWAP1 SSTORE POP PUSH1 0x0 DUP1 SLOAD SWAP1 PUSH2 0x100 EXP SWAP1 DIV PUSH20 0xFFFFFFFFFFFFFFFFFFFFFFFFFFFFFFFFFFFFFFFF AND DUP2 PUSH1 0x4 ADD PUSH1 0x1 PUSH2 0x100 EXP DUP2 SLOAD DUP2 PUSH20 0xFFFFFFFFFFFFFFFFFFFFFFFFFFFFFFFFFFFFFFFF MUL NOT AND SWAP1 DUP4 PUSH20 0xFFFFFFFFFFFFFFFFFFFFFFFFFFFFFFFFFFFFFFFF AND MUL OR SWAP1 SSTORE POP PUSH32 0x8F1D98CB8AE39006C9203B8574CF20DFCF409CA763F70058154E7E03BACBC7B0 PUSH1 0xA SLOAD DUP5 DUP5 PUSH1 0x0 DUP1 SLOAD SWAP1 PUSH2 0x100 EXP SWAP1 DIV PUSH20 0xFFFFFFFFFFFFFFFFFFFFFFFFFFFFFFFFFFFFFFFF AND PUSH1 0x40 MLOAD PUSH2 0x90F SWAP5 SWAP4 SWAP3 SWAP2 SWAP1 PUSH2 0x1CDF JUMP JUMPDEST PUSH1 0x40 MLOAD DUP1 SWAP2 SUB SWAP1 LOG1 POP POP POP JUMP JUMPDEST PUSH1 0x0 SELFBALANCE SWAP1 POP SWAP1 JUMP JUMPDEST PUSH1 0x2 SLOAD CALLVALUE LT ISZERO PUSH2 0x969 JUMPI PUSH1 0x40 MLOAD PUSH32 0x8C379A000000000000000000000000000000000000000000000000000000000 DUP2 MSTORE PUSH1 0x4 ADD PUSH2 0x960 SWAP1 PUSH2 0x1D9D JUMP JUMPDEST PUSH1 0x40 MLOAD DUP1 SWAP2 SUB SWAP1 REVERT JUMPDEST PUSH1 0x0 PUSH1 0x1 DUP2 GT ISZERO PUSH2 0x97D JUMPI PUSH2 0x97C PUSH2 0x1506 JUMP JUMPDEST JUMPDEST PUSH1 0x7 PUSH1 0x0 SWAP1 SLOAD SWAP1 PUSH2 0x100 EXP SWAP1 DIV PUSH1 0xFF AND PUSH1 0x1 DUP2 GT ISZERO PUSH2 0x99F JUMPI PUSH2 0x99E PUSH2 0x1506 JUMP JUMPDEST JUMPDEST EQ DUP1 PUSH2 0x9DD JUMPI POP PUSH1 0x1 DUP1 DUP2 GT ISZERO PUSH2 0x9B9 JUMPI PUSH2 0x9B8 PUSH2 0x1506 JUMP JUMPDEST JUMPDEST PUSH1 0x7 PUSH1 0x0 SWAP1 SLOAD SWAP1 PUSH2 0x100 EXP SWAP1 DIV PUSH1 0xFF AND PUSH1 0x1 DUP2 GT ISZERO PUSH2 0x9DB JUMPI PUSH2 0x9DA PUSH2 0x1506 JUMP JUMPDEST JUMPDEST EQ JUMPDEST PUSH2 0xA1C JUMPI PUSH1 0x40 MLOAD PUSH32 0x8C379A000000000000000000000000000000000000000000000000000000000 DUP2 MSTORE PUSH1 0x4 ADD PUSH2 0xA13 SWAP1 PUSH2 0x1E09 JUMP JUMPDEST PUSH1 0x40 MLOAD DUP1 SWAP2 SUB SWAP1 REVERT JUMPDEST PUSH1 0x0 PUSH1 0x8 PUSH1 0x0 DUP4 PUSH20 0xFFFFFFFFFFFFFFFFFFFFFFFFFFFFFFFFFFFFFFFF AND PUSH20 0xFFFFFFFFFFFFFFFFFFFFFFFFFFFFFFFFFFFFFFFF AND DUP2 MSTORE PUSH1 0x20 ADD SWAP1 DUP2 MSTORE PUSH1 0x20 ADD PUSH1 0x0 KECCAK256 SLOAD SUB PUSH2 0xA7C JUMPI PUSH1 0x4 PUSH1 0x0 DUP2 SLOAD DUP1 SWAP3 SWAP2 SWAP1 PUSH2 0xA76 SWAP1 PUSH2 0x19C4 JUMP JUMPDEST SWAP2 SWAP1 POP SSTORE POP JUMPDEST CALLVALUE PUSH1 0x8 PUSH1 0x0 DUP4 PUSH20 0xFFFFFFFFFFFFFFFFFFFFFFFFFFFFFFFFFFFFFFFF AND PUSH20 0xFFFFFFFFFFFFFFFFFFFFFFFFFFFFFFFFFFFFFFFF AND DUP2 MSTORE PUSH1 0x20 ADD SWAP1 DUP2 MSTORE PUSH1 0x20 ADD PUSH1 0x0 KECCAK256 PUSH1 0x0 DUP3 DUP3 SLOAD PUSH2 0xACB SWAP2 SWAP1 PUSH2 0x177C JUMP JUMPDEST SWAP3 POP POP DUP2 SWAP1 SSTORE POP CALLVALUE PUSH1 0x3 PUSH1 0x0 DUP3 DUP3 SLOAD PUSH2 0xAE4 SWAP2 SWAP1 PUSH2 0x177C JUMP JUMPDEST SWAP3 POP POP DUP2 SWAP1 SSTORE POP PUSH1 0x1 SLOAD PUSH1 0x3 SLOAD LT PUSH2 0xB22 JUMPI PUSH1 0x1 PUSH1 0x7 PUSH1 0x0 PUSH2 0x100 EXP DUP2 SLOAD DUP2 PUSH1 0xFF MUL NOT AND SWAP1 DUP4 PUSH1 0x1 DUP2 GT ISZERO PUSH2 0xB1C JUMPI PUSH2 0xB1B PUSH2 0x1506 JUMP JUMPDEST JUMPDEST MUL OR SWAP1 SSTORE POP JUMPDEST PUSH32 0x5CDC4AB8D637538EAD6CC1904D4160343656C8C82BD266635CFD31AC008FFFE0 DUP2 CALLVALUE PUSH1 0x3 SLOAD PUSH1 0x40 MLOAD PUSH2 0xB57 SWAP4 SWAP3 SWAP2 SWAP1 PUSH2 0x1E29 JUMP JUMPDEST PUSH1 0x40 MLOAD DUP1 SWAP2 SUB SWAP1 LOG1 POP JUMP JUMPDEST PUSH1 0x0 DUP1 SLOAD SWAP1 PUSH2 0x100 EXP SWAP1 DIV PUSH20 0xFFFFFFFFFFFFFFFFFFFFFFFFFFFFFFFFFFFFFFFF AND PUSH20 0xFFFFFFFFFFFFFFFFFFFFFFFFFFFFFFFFFFFFFFFF AND CALLER PUSH20 0xFFFFFFFFFFFFFFFFFFFFFFFFFFFFFFFFFFFFFFFF AND EQ PUSH2 0xBF0 JUMPI PUSH1 0x40 MLOAD PUSH32 0x8C379A000000000000000000000000000000000000000000000000000000000 DUP2 MSTORE PUSH1 0x4 ADD PUSH2 0xBE7 SWAP1 PUSH2 0x185A JUMP JUMPDEST PUSH1 0x40 MLOAD DUP1 SWAP2 SUB SWAP1 REVERT JUMPDEST PUSH1 0x0 PUSH1 0x9 PUSH1 0x0 DUP4 DUP2 MSTORE PUSH1 0x20 ADD SWAP1 DUP2 MSTORE PUSH1 0x20 ADD PUSH1 0x0 KECCAK256 SWAP1 POP PUSH1 0x0 ISZERO ISZERO DUP2 PUSH1 0x4 ADD PUSH1 0x0 SWAP1 SLOAD SWAP1 PUSH2 0x100 EXP SWAP1 DIV PUSH1 0xFF AND ISZERO ISZERO EQ PUSH2 0xC5F JUMPI PUSH1 0x40 MLOAD PUSH32 0x8C379A000000000000000000000000000000000000000000000000000000000 DUP2 MSTORE PUSH1 0x4 ADD PUSH2 0xC56 SWAP1 PUSH2 0x1EAC JUMP JUMPDEST PUSH1 0x40 MLOAD DUP1 SWAP2 SUB SWAP1 REVERT JUMPDEST PUSH1 0x2 PUSH1 0x3 SLOAD PUSH2 0xC6E SWAP2 SWAP1 PUSH2 0x1EFB JUMP JUMPDEST DUP2 PUSH1 0x2 ADD SLOAD LT ISZERO PUSH2 0xCB4 JUMPI PUSH1 0x40 MLOAD PUSH32 0x8C379A000000000000000000000000000000000000000000000000000000000 DUP2 MSTORE PUSH1 0x4 ADD PUSH2 0xCAB SWAP1 PUSH2 0x1FC4 JUMP JUMPDEST PUSH1 0x40 MLOAD DUP1 SWAP2 SUB SWAP1 REVERT JUMPDEST DUP1 PUSH1 0x4 ADD PUSH1 0x1 SWAP1 SLOAD SWAP1 PUSH2 0x100 EXP SWAP1 DIV PUSH20 0xFFFFFFFFFFFFFFFFFFFFFFFFFFFFFFFFFFFFFFFF AND PUSH20 0xFFFFFFFFFFFFFFFFFFFFFFFFFFFFFFFFFFFFFFFF AND PUSH2 0x8FC DUP3 PUSH1 0x1 ADD SLOAD SWAP1 DUP2 ISZERO MUL SWAP1 PUSH1 0x40 MLOAD PUSH1 0x0 PUSH1 0x40 MLOAD DUP1 DUP4 SUB DUP2 DUP6 DUP9 DUP9 CALL SWAP4 POP POP POP POP ISZERO DUP1 ISZERO PUSH2 0xD22 JUMPI RETURNDATASIZE PUSH1 0x0 DUP1 RETURNDATACOPY RETURNDATASIZE PUSH1 0x0 REVERT JUMPDEST POP PUSH1 0x1 DUP2 PUSH1 0x4 ADD PUSH1 0x0 PUSH2 0x100 EXP DUP2 SLOAD DUP2 PUSH1 0xFF MUL NOT AND SWAP1 DUP4 ISZERO ISZERO MUL OR SWAP1 SSTORE POP PUSH32 0x3BACB971B4D3FFB7DD453FF3B54C68CB149F7B8C5E667889EF5FA01857E8735 DUP3 DUP3 PUSH1 0x1 ADD SLOAD DUP4 PUSH1 0x4 ADD PUSH1 0x1 SWAP1 SLOAD SWAP1 PUSH2 0x100 EXP SWAP1 DIV PUSH20 0xFFFFFFFFFFFFFFFFFFFFFFFFFFFFFFFFFFFFFFFF AND PUSH1 0x40 MLOAD PUSH2 0xD9B SWAP4 SWAP3 SWAP2 SWAP1 PUSH2 0x1FE4 JUMP JUMPDEST PUSH1 0x40 MLOAD DUP1 SWAP2 SUB SWAP1 LOG1 POP POP JUMP JUMPDEST PUSH1 0x2 SLOAD DUP2 JUMP JUMPDEST PUSH1 0x9 PUSH1 0x20 MSTORE DUP1 PUSH1 0x0 MSTORE PUSH1 0x40 PUSH1 0x0 KECCAK256 PUSH1 0x0 SWAP2 POP SWAP1 POP DUP1 PUSH1 0x0 ADD DUP1 SLOAD PUSH2 0xDD0 SWAP1 PUSH2 0x1644 JUMP JUMPDEST DUP1 PUSH1 0x1F ADD PUSH1 0x20 DUP1 SWAP2 DIV MUL PUSH1 0x20 ADD PUSH1 0x40 MLOAD SWAP1 DUP2 ADD PUSH1 0x40 MSTORE DUP1 SWAP3 SWAP2 SWAP1 DUP2 DUP2 MSTORE PUSH1 0x20 ADD DUP3 DUP1 SLOAD PUSH2 0xDFC SWAP1 PUSH2 0x1644 JUMP JUMPDEST DUP1 ISZERO PUSH2 0xE49 JUMPI DUP1 PUSH1 0x1F LT PUSH2 0xE1E JUMPI PUSH2 0x100 DUP1 DUP4 SLOAD DIV MUL DUP4 MSTORE SWAP2 PUSH1 0x20 ADD SWAP2 PUSH2 0xE49 JUMP JUMPDEST DUP3 ADD SWAP2 SWAP1 PUSH1 0x0 MSTORE PUSH1 0x20 PUSH1 0x0 KECCAK256 SWAP1 JUMPDEST DUP2 SLOAD DUP2 MSTORE SWAP1 PUSH1 0x1 ADD SWAP1 PUSH1 0x20 ADD DUP1 DUP4 GT PUSH2 0xE2C JUMPI DUP3 SWAP1 SUB PUSH1 0x1F AND DUP3 ADD SWAP2 JUMPDEST POP POP POP POP POP SWAP1 DUP1 PUSH1 0x1 ADD SLOAD SWAP1 DUP1 PUSH1 0x2 ADD SLOAD SWAP1 DUP1 PUSH1 0x4 ADD PUSH1 0x0 SWAP1 SLOAD SWAP1 PUSH2 0x100 EXP SWAP1 DIV PUSH1 0xFF AND SWAP1 DUP1 PUSH1 0x4 ADD PUSH1 0x1 SWAP1 SLOAD SWAP1 PUSH2 0x100 EXP SWAP1 DIV PUSH20 0xFFFFFFFFFFFFFFFFFFFFFFFFFFFFFFFFFFFFFFFF AND SWAP1 POP DUP6 JUMP JUMPDEST PUSH1 0xA SLOAD DUP2 JUMP JUMPDEST PUSH1 0x1 SLOAD DUP2 JUMP JUMPDEST PUSH1 0x7 PUSH1 0x0 SWAP1 SLOAD SWAP1 PUSH2 0x100 EXP SWAP1 DIV PUSH1 0xFF AND DUP2 JUMP JUMPDEST PUSH1 0x5 DUP1 SLOAD PUSH2 0xEC4 SWAP1 PUSH2 0x1644 JUMP JUMPDEST DUP1 PUSH1 0x1F ADD PUSH1 0x20 DUP1 SWAP2 DIV MUL PUSH1 0x20 ADD PUSH1 0x40 MLOAD SWAP1 DUP2 ADD PUSH1 0x40 MSTORE DUP1 SWAP3 SWAP2 SWAP1 DUP2 DUP2 MSTORE PUSH1 0x20 ADD DUP3 DUP1 SLOAD PUSH2 0xEF0 SWAP1 PUSH2 0x1644 JUMP JUMPDEST DUP1 ISZERO PUSH2 0xF3D JUMPI DUP1 PUSH1 0x1F LT PUSH2 0xF12 JUMPI PUSH2 0x100 DUP1 DUP4 SLOAD DIV MUL DUP4 MSTORE SWAP2 PUSH1 0x20 ADD SWAP2 PUSH2 0xF3D JUMP JUMPDEST DUP3 ADD SWAP2 SWAP1 PUSH1 0x0 MSTORE PUSH1 0x20 PUSH1 0x0 KECCAK256 SWAP1 JUMPDEST DUP2 SLOAD DUP2 MSTORE SWAP1 PUSH1 0x1 ADD SWAP1 PUSH1 0x20 ADD DUP1 DUP4 GT PUSH2 0xF20 JUMPI DUP3 SWAP1 SUB PUSH1 0x1F AND DUP3 ADD SWAP2 JUMPDEST POP POP POP POP POP DUP2 JUMP JUMPDEST PUSH1 0x3 SLOAD DUP2 JUMP JUMPDEST PUSH1 0x0 DUP1 PUSH1 0x0 PUSH1 0x60 DUP1 PUSH1 0x0 DUP1 PUSH1 0x0 DUP1 SLOAD SWAP1 PUSH2 0x100 EXP SWAP1 DIV PUSH20 0xFFFFFFFFFFFFFFFFFFFFFFFFFFFFFFFFFFFFFFFF AND SWAP7 POP PUSH1 0x1 SLOAD SWAP6 POP PUSH1 0x3 SLOAD SWAP5 POP PUSH1 0x5 DUP1 SLOAD PUSH2 0xF90 SWAP1 PUSH2 0x1644 JUMP JUMPDEST DUP1 PUSH1 0x1F ADD PUSH1 0x20 DUP1 SWAP2 DIV MUL PUSH1 0x20 ADD PUSH1 0x40 MLOAD SWAP1 DUP2 ADD PUSH1 0x40 MSTORE DUP1 SWAP3 SWAP2 SWAP1 DUP2 DUP2 MSTORE PUSH1 0x20 ADD DUP3 DUP1 SLOAD PUSH2 0xFBC SWAP1 PUSH2 0x1644 JUMP JUMPDEST DUP1 ISZERO PUSH2 0x1009 JUMPI DUP1 PUSH1 0x1F LT PUSH2 0xFDE JUMPI PUSH2 0x100 DUP1 DUP4 SLOAD DIV MUL DUP4 MSTORE SWAP2 PUSH1 0x20 ADD SWAP2 PUSH2 0x1009 JUMP JUMPDEST DUP3 ADD SWAP2 SWAP1 PUSH1 0x0 MSTORE PUSH1 0x20 PUSH1 0x0 KECCAK256 SWAP1 JUMPDEST DUP2 SLOAD DUP2 MSTORE SWAP1 PUSH1 0x1 ADD SWAP1 PUSH1 0x20 ADD DUP1 DUP4 GT PUSH2 0xFEC JUMPI DUP3 SWAP1 SUB PUSH1 0x1F AND DUP3 ADD SWAP2 JUMPDEST POP POP POP POP POP SWAP4 POP PUSH1 0x6 DUP1 SLOAD PUSH2 0x101D SWAP1 PUSH2 0x1644 JUMP JUMPDEST DUP1 PUSH1 0x1F ADD PUSH1 0x20 DUP1 SWAP2 DIV MUL PUSH1 0x20 ADD PUSH1 0x40 MLOAD SWAP1 DUP2 ADD PUSH1 0x40 MSTORE DUP1 SWAP3 SWAP2 SWAP1 DUP2 DUP2 MSTORE PUSH1 0x20 ADD DUP3 DUP1 SLOAD PUSH2 0x1049 SWAP1 PUSH2 0x1644 JUMP JUMPDEST DUP1 ISZERO PUSH2 0x1096 JUMPI DUP1 PUSH1 0x1F LT PUSH2 0x106B JUMPI PUSH2 0x100 DUP1 DUP4 SLOAD DIV MUL DUP4 MSTORE SWAP2 PUSH1 0x20 ADD SWAP2 PUSH2 0x1096 JUMP JUMPDEST DUP3 ADD SWAP2 SWAP1 PUSH1 0x0 MSTORE PUSH1 0x20 PUSH1 0x0 KECCAK256 SWAP1 JUMPDEST DUP2 SLOAD DUP2 MSTORE SWAP1 PUSH1 0x1 ADD SWAP1 PUSH1 0x20 ADD DUP1 DUP4 GT PUSH2 0x1079 JUMPI DUP3 SWAP1 SUB PUSH1 0x1F AND DUP3 ADD SWAP2 JUMPDEST POP POP POP POP POP SWAP3 POP PUSH1 0x7 PUSH1 0x0 SWAP1 SLOAD SWAP1 PUSH2 0x100 EXP SWAP1 DIV PUSH1 0xFF AND SWAP2 POP SELFBALANCE SWAP1 POP SWAP1 SWAP2 SWAP3 SWAP4 SWAP5 SWAP6 SWAP7 JUMP JUMPDEST PUSH1 0x0 PUSH11 0x636F6E736F6C652E6C6F67 SWAP1 POP PUSH1 0x0 DUP1 DUP4 MLOAD PUSH1 0x20 DUP6 ADD DUP5 GAS STATICCALL POP POP POP JUMP JUMPDEST PUSH2 0x10E4 PUSH2 0x201B JUMP JUMPDEST JUMP JUMPDEST PUSH1 0x0 PUSH20 0xFFFFFFFFFFFFFFFFFFFFFFFFFFFFFFFFFFFFFFFF DUP3 AND SWAP1 POP SWAP2 SWAP1 POP JUMP JUMPDEST PUSH1 0x0 PUSH2 0x1111 DUP3 PUSH2 0x10E6 JUMP JUMPDEST SWAP1 POP SWAP2 SWAP1 POP JUMP JUMPDEST PUSH2 0x1121 DUP2 PUSH2 0x1106 JUMP JUMPDEST DUP3 MSTORE POP POP JUMP JUMPDEST PUSH1 0x0 PUSH1 0x20 DUP3 ADD SWAP1 POP PUSH2 0x113C PUSH1 0x0 DUP4 ADD DUP5 PUSH2 0x1118 JUMP JUMPDEST SWAP3 SWAP2 POP POP JUMP JUMPDEST PUSH1 0x0 DUP2 MLOAD SWAP1 POP SWAP2 SWAP1 POP JUMP JUMPDEST PUSH1 0x0 DUP3 DUP3 MSTORE PUSH1 0x20 DUP3 ADD SWAP1 POP SWAP3 SWAP2 POP POP JUMP JUMPDEST PUSH1 0x0 JUMPDEST DUP4 DUP2 LT ISZERO PUSH2 0x117C JUMPI DUP1 DUP3 ADD MLOAD DUP2 DUP5 ADD MSTORE PUSH1 0x20 DUP2 ADD SWAP1 POP PUSH2 0x1161 JUMP JUMPDEST PUSH1 0x0 DUP5 DUP5 ADD MSTORE POP POP POP POP JUMP JUMPDEST PUSH1 0x0 PUSH1 0x1F NOT PUSH1 0x1F DUP4 ADD AND SWAP1 POP SWAP2 SWAP1 POP JUMP JUMPDEST PUSH1 0x0 PUSH2 0x11A4 DUP3 PUSH2 0x1142 JUMP JUMPDEST PUSH2 0x11AE DUP2 DUP6 PUSH2 0x114D JUMP JUMPDEST SWAP4 POP PUSH2 0x11BE DUP2 DUP6 PUSH1 0x20 DUP7 ADD PUSH2 0x115E JUMP JUMPDEST PUSH2 0x11C7 DUP2 PUSH2 0x1188 JUMP JUMPDEST DUP5 ADD SWAP2 POP POP SWAP3 SWAP2 POP POP JUMP JUMPDEST PUSH1 0x0 PUSH1 0x20 DUP3 ADD SWAP1 POP DUP2 DUP2 SUB PUSH1 0x0 DUP4 ADD MSTORE PUSH2 0x11EC DUP2 DUP5 PUSH2 0x1199 JUMP JUMPDEST SWAP1 POP SWAP3 SWAP2 POP POP JUMP JUMPDEST PUSH1 0x0 PUSH1 0x40 MLOAD SWAP1 POP SWAP1 JUMP JUMPDEST PUSH1 0x0 DUP1 REVERT JUMPDEST PUSH1 0x0 DUP1 REVERT JUMPDEST PUSH1 0x0 PUSH2 0x1213 DUP3 PUSH2 0x10E6 JUMP JUMPDEST SWAP1 POP SWAP2 SWAP1 POP JUMP JUMPDEST PUSH2 0x1223 DUP2 PUSH2 0x1208 JUMP JUMPDEST DUP2 EQ PUSH2 0x122E JUMPI PUSH1 0x0 DUP1 REVERT JUMPDEST POP JUMP JUMPDEST PUSH1 0x0 DUP2 CALLDATALOAD SWAP1 POP PUSH2 0x1240 DUP2 PUSH2 0x121A JUMP JUMPDEST SWAP3 SWAP2 POP POP JUMP JUMPDEST PUSH1 0x0 PUSH1 0x20 DUP3 DUP5 SUB SLT ISZERO PUSH2 0x125C JUMPI PUSH2 0x125B PUSH2 0x11FE JUMP JUMPDEST JUMPDEST PUSH1 0x0 PUSH2 0x126A DUP5 DUP3 DUP6 ADD PUSH2 0x1231 JUMP JUMPDEST SWAP2 POP POP SWAP3 SWAP2 POP POP JUMP JUMPDEST PUSH1 0x0 DUP2 SWAP1 POP SWAP2 SWAP1 POP JUMP JUMPDEST PUSH2 0x1286 DUP2 PUSH2 0x1273 JUMP JUMPDEST DUP3 MSTORE POP POP JUMP JUMPDEST PUSH1 0x0 PUSH1 0x20 DUP3 ADD SWAP1 POP PUSH2 0x12A1 PUSH1 0x0 DUP4 ADD DUP5 PUSH2 0x127D JUMP JUMPDEST SWAP3 SWAP2 POP POP JUMP JUMPDEST PUSH2 0x12B0 DUP2 PUSH2 0x1273 JUMP JUMPDEST DUP2 EQ PUSH2 0x12BB JUMPI PUSH1 0x0 DUP1 REVERT JUMPDEST POP JUMP JUMPDEST PUSH1 0x0 DUP2 CALLDATALOAD SWAP1 POP PUSH2 0x12CD DUP2 PUSH2 0x12A7 JUMP JUMPDEST SWAP3 SWAP2 POP POP JUMP JUMPDEST PUSH1 0x0 PUSH1 0x20 DUP3 DUP5 SUB SLT ISZERO PUSH2 0x12E9 JUMPI PUSH2 0x12E8 PUSH2 0x11FE JUMP JUMPDEST JUMPDEST PUSH1 0x0 PUSH2 0x12F7 DUP5 DUP3 DUP6 ADD PUSH2 0x12BE JUMP JUMPDEST SWAP2 POP POP SWAP3 SWAP2 POP POP JUMP JUMPDEST PUSH1 0x0 DUP1 REVERT JUMPDEST PUSH1 0x0 DUP1 REVERT JUMPDEST PUSH32 0x4E487B7100000000000000000000000000000000000000000000000000000000 PUSH1 0x0 MSTORE PUSH1 0x41 PUSH1 0x4 MSTORE PUSH1 0x24 PUSH1 0x0 REVERT JUMPDEST PUSH2 0x1342 DUP3 PUSH2 0x1188 JUMP JUMPDEST DUP2 ADD DUP2 DUP2 LT PUSH8 0xFFFFFFFFFFFFFFFF DUP3 GT OR ISZERO PUSH2 0x1361 JUMPI PUSH2 0x1360 PUSH2 0x130A JUMP JUMPDEST JUMPDEST DUP1 PUSH1 0x40 MSTORE POP POP POP JUMP JUMPDEST PUSH1 0x0 PUSH2 0x1374 PUSH2 0x11F4 JUMP JUMPDEST SWAP1 POP PUSH2 0x1380 DUP3 DUP3 PUSH2 0x1339 JUMP JUMPDEST SWAP2 SWAP1 POP JUMP JUMPDEST PUSH1 0x0 PUSH8 0xFFFFFFFFFFFFFFFF DUP3 GT ISZERO PUSH2 0x13A0 JUMPI PUSH2 0x139F PUSH2 0x130A JUMP JUMPDEST JUMPDEST PUSH2 0x13A9 DUP3 PUSH2 0x1188 JUMP JUMPDEST SWAP1 POP PUSH1 0x20 DUP2 ADD SWAP1 POP SWAP2 SWAP1 POP JUMP JUMPDEST DUP3 DUP2 DUP4 CALLDATACOPY PUSH1 0x0 DUP4 DUP4 ADD MSTORE POP POP POP JUMP JUMPDEST PUSH1 0x0 PUSH2 0x13D8 PUSH2 0x13D3 DUP5 PUSH2 0x1385 JUMP JUMPDEST PUSH2 0x136A JUMP JUMPDEST SWAP1 POP DUP3 DUP2 MSTORE PUSH1 0x20 DUP2 ADD DUP5 DUP5 DUP5 ADD GT ISZERO PUSH2 0x13F4 JUMPI PUSH2 0x13F3 PUSH2 0x1305 JUMP JUMPDEST JUMPDEST PUSH2 0x13FF DUP5 DUP3 DUP6 PUSH2 0x13B6 JUMP JUMPDEST POP SWAP4 SWAP3 POP POP POP JUMP JUMPDEST PUSH1 0x0 DUP3 PUSH1 0x1F DUP4 ADD SLT PUSH2 0x141C JUMPI PUSH2 0x141B PUSH2 0x1300 JUMP JUMPDEST JUMPDEST DUP2 CALLDATALOAD PUSH2 0x142C DUP5 DUP3 PUSH1 0x20 DUP7 ADD PUSH2 0x13C5 JUMP JUMPDEST SWAP2 POP POP SWAP3 SWAP2 POP POP JUMP JUMPDEST PUSH1 0x0 DUP1 PUSH1 0x40 DUP4 DUP6 SUB SLT ISZERO PUSH2 0x144C JUMPI PUSH2 0x144B PUSH2 0x11FE JUMP JUMPDEST JUMPDEST PUSH1 0x0 DUP4 ADD CALLDATALOAD PUSH8 0xFFFFFFFFFFFFFFFF DUP2 GT ISZERO PUSH2 0x146A JUMPI PUSH2 0x1469 PUSH2 0x1203 JUMP JUMPDEST JUMPDEST PUSH2 0x1476 DUP6 DUP3 DUP7 ADD PUSH2 0x1407 JUMP JUMPDEST SWAP3 POP POP PUSH1 0x20 PUSH2 0x1487 DUP6 DUP3 DUP7 ADD PUSH2 0x12BE JUMP JUMPDEST SWAP2 POP POP SWAP3 POP SWAP3 SWAP1 POP JUMP JUMPDEST PUSH1 0x0 DUP2 ISZERO ISZERO SWAP1 POP SWAP2 SWAP1 POP JUMP JUMPDEST PUSH2 0x14A6 DUP2 PUSH2 0x1491 JUMP JUMPDEST DUP3 MSTORE POP POP JUMP JUMPDEST PUSH1 0x0 PUSH1 0xA0 DUP3 ADD SWAP1 POP DUP2 DUP2 SUB PUSH1 0x0 DUP4 ADD MSTORE PUSH2 0x14C6 DUP2 DUP9 PUSH2 0x1199 JUMP JUMPDEST SWAP1 POP PUSH2 0x14D5 PUSH1 0x20 DUP4 ADD DUP8 PUSH2 0x127D JUMP JUMPDEST PUSH2 0x14E2 PUSH1 0x40 DUP4 ADD DUP7 PUSH2 0x127D JUMP JUMPDEST PUSH2 0x14EF PUSH1 0x60 DUP4 ADD DUP6 PUSH2 0x149D JUMP JUMPDEST PUSH2 0x14FC PUSH1 0x80 DUP4 ADD DUP5 PUSH2 0x1118 JUMP JUMPDEST SWAP7 SWAP6 POP POP POP POP POP POP JUMP JUMPDEST PUSH32 0x4E487B7100000000000000000000000000000000000000000000000000000000 PUSH1 0x0 MSTORE PUSH1 0x21 PUSH1 0x4 MSTORE PUSH1 0x24 PUSH1 0x0 REVERT JUMPDEST PUSH1 0x2 DUP2 LT PUSH2 0x1546 JUMPI PUSH2 0x1545 PUSH2 0x1506 JUMP JUMPDEST JUMPDEST POP JUMP JUMPDEST PUSH1 0x0 DUP2 SWAP1 POP PUSH2 0x1557 DUP3 PUSH2 0x1535 JUMP JUMPDEST SWAP2 SWAP1 POP JUMP JUMPDEST PUSH1 0x0 PUSH2 0x1567 DUP3 PUSH2 0x1549 JUMP JUMPDEST SWAP1 POP SWAP2 SWAP1 POP JUMP JUMPDEST PUSH2 0x1577 DUP2 PUSH2 0x155C JUMP JUMPDEST DUP3 MSTORE POP POP JUMP JUMPDEST PUSH1 0x0 PUSH1 0x20 DUP3 ADD SWAP1 POP PUSH2 0x1592 PUSH1 0x0 DUP4 ADD DUP5 PUSH2 0x156E JUMP JUMPDEST SWAP3 SWAP2 POP POP JUMP JUMPDEST PUSH1 0x0 PUSH1 0xE0 DUP3 ADD SWAP1 POP PUSH2 0x15AD PUSH1 0x0 DUP4 ADD DUP11 PUSH2 0x1118 JUMP JUMPDEST PUSH2 0x15BA PUSH1 0x20 DUP4 ADD DUP10 PUSH2 0x127D JUMP JUMPDEST PUSH2 0x15C7 PUSH1 0x40 DUP4 ADD DUP9 PUSH2 0x127D JUMP JUMPDEST DUP2 DUP2 SUB PUSH1 0x60 DUP4 ADD MSTORE PUSH2 0x15D9 DUP2 DUP8 PUSH2 0x1199 JUMP JUMPDEST SWAP1 POP DUP2 DUP2 SUB PUSH1 0x80 DUP4 ADD MSTORE PUSH2 0x15ED DUP2 DUP7 PUSH2 0x1199 JUMP JUMPDEST SWAP1 POP PUSH2 0x15FC PUSH1 0xA0 DUP4 ADD DUP6 PUSH2 0x156E JUMP JUMPDEST PUSH2 0x1609 PUSH1 0xC0 DUP4 ADD DUP5 PUSH2 0x127D JUMP JUMPDEST SWAP9 SWAP8 POP POP POP POP POP POP POP POP JUMP JUMPDEST PUSH32 0x4E487B7100000000000000000000000000000000000000000000000000000000 PUSH1 0x0 MSTORE PUSH1 0x22 PUSH1 0x4 MSTORE PUSH1 0x24 PUSH1 0x0 REVERT JUMPDEST PUSH1 0x0 PUSH1 0x2 DUP3 DIV SWAP1 POP PUSH1 0x1 DUP3 AND DUP1 PUSH2 0x165C JUMPI PUSH1 0x7F DUP3 AND SWAP2 POP JUMPDEST PUSH1 0x20 DUP3 LT DUP2 SUB PUSH2 0x166F JUMPI PUSH2 0x166E PUSH2 0x1615 JUMP JUMPDEST JUMPDEST POP SWAP2 SWAP1 POP JUMP JUMPDEST PUSH32 0x4F6E6C7920636F6E7472696275746F72732063616E20766F7465210000000000 PUSH1 0x0 DUP3 ADD MSTORE POP JUMP JUMPDEST PUSH1 0x0 PUSH2 0x16AB PUSH1 0x1B DUP4 PUSH2 0x114D JUMP JUMPDEST SWAP2 POP PUSH2 0x16B6 DUP3 PUSH2 0x1675 JUMP JUMPDEST PUSH1 0x20 DUP3 ADD SWAP1 POP SWAP2 SWAP1 POP JUMP JUMPDEST PUSH1 0x0 PUSH1 0x20 DUP3 ADD SWAP1 POP DUP2 DUP2 SUB PUSH1 0x0 DUP4 ADD MSTORE PUSH2 0x16DA DUP2 PUSH2 0x169E JUMP JUMPDEST SWAP1 POP SWAP2 SWAP1 POP JUMP JUMPDEST PUSH32 0x596F7520616C726561647920766F746564210000000000000000000000000000 PUSH1 0x0 DUP3 ADD MSTORE POP JUMP JUMPDEST PUSH1 0x0 PUSH2 0x1717 PUSH1 0x12 DUP4 PUSH2 0x114D JUMP JUMPDEST SWAP2 POP PUSH2 0x1722 DUP3 PUSH2 0x16E1 JUMP JUMPDEST PUSH1 0x20 DUP3 ADD SWAP1 POP SWAP2 SWAP1 POP JUMP JUMPDEST PUSH1 0x0 PUSH1 0x20 DUP3 ADD SWAP1 POP DUP2 DUP2 SUB PUSH1 0x0 DUP4 ADD MSTORE PUSH2 0x1746 DUP2 PUSH2 0x170A JUMP JUMPDEST SWAP1 POP SWAP2 SWAP1 POP JUMP JUMPDEST PUSH32 0x4E487B7100000000000000000000000000000000000000000000000000000000 PUSH1 0x0 MSTORE PUSH1 0x11 PUSH1 0x4 MSTORE PUSH1 0x24 PUSH1 0x0 REVERT JUMPDEST PUSH1 0x0 PUSH2 0x1787 DUP3 PUSH2 0x1273 JUMP JUMPDEST SWAP2 POP PUSH2 0x1792 DUP4 PUSH2 0x1273 JUMP JUMPDEST SWAP3 POP DUP3 DUP3 ADD SWAP1 POP DUP1 DUP3 GT ISZERO PUSH2 0x17AA JUMPI PUSH2 0x17A9 PUSH2 0x174D JUMP JUMPDEST JUMPDEST SWAP3 SWAP2 POP POP JUMP JUMPDEST PUSH2 0x17B9 DUP2 PUSH2 0x1208 JUMP JUMPDEST DUP3 MSTORE POP POP JUMP JUMPDEST PUSH1 0x0 PUSH1 0x40 DUP3 ADD SWAP1 POP PUSH2 0x17D4 PUSH1 0x0 DUP4 ADD DUP6 PUSH2 0x17B0 JUMP JUMPDEST PUSH2 0x17E1 PUSH1 0x20 DUP4 ADD DUP5 PUSH2 0x127D JUMP JUMPDEST SWAP4 SWAP3 POP POP POP JUMP JUMPDEST PUSH32 0x4F6E6C79207468652063726561746F722063616E20706572666F726D20746869 PUSH1 0x0 DUP3 ADD MSTORE PUSH32 0x73206F7065726174696F6E210000000000000000000000000000000000000000 PUSH1 0x20 DUP3 ADD MSTORE POP JUMP JUMPDEST PUSH1 0x0 PUSH2 0x1844 PUSH1 0x2C DUP4 PUSH2 0x114D JUMP JUMPDEST SWAP2 POP PUSH2 0x184F DUP3 PUSH2 0x17E8 JUMP JUMPDEST PUSH1 0x40 DUP3 ADD SWAP1 POP SWAP2 SWAP1 POP JUMP JUMPDEST PUSH1 0x0 PUSH1 0x20 DUP3 ADD SWAP1 POP DUP2 DUP2 SUB PUSH1 0x0 DUP4 ADD MSTORE PUSH2 0x1873 DUP2 PUSH2 0x1837 JUMP JUMPDEST SWAP1 POP SWAP2 SWAP1 POP JUMP JUMPDEST PUSH32 0x50726F6A656374206861736E2774206D65742069747320676F616C207965742E PUSH1 0x0 DUP3 ADD MSTORE PUSH32 0x20596F752063616E6E6F74207769746864726177207768696C65207468652063 PUSH1 0x20 DUP3 ADD MSTORE PUSH32 0x616D706169676E206973207374696C6C206F6E676F696E672100000000000000 PUSH1 0x40 DUP3 ADD MSTORE POP JUMP JUMPDEST PUSH1 0x0 PUSH2 0x18FC PUSH1 0x59 DUP4 PUSH2 0x114D JUMP JUMPDEST SWAP2 POP PUSH2 0x1907 DUP3 PUSH2 0x187A JUMP JUMPDEST PUSH1 0x60 DUP3 ADD SWAP1 POP SWAP2 SWAP1 POP JUMP JUMPDEST PUSH1 0x0 PUSH1 0x20 DUP3 ADD SWAP1 POP DUP2 DUP2 SUB PUSH1 0x0 DUP4 ADD MSTORE PUSH2 0x192B DUP2 PUSH2 0x18EF JUMP JUMPDEST SWAP1 POP SWAP2 SWAP1 POP JUMP JUMPDEST PUSH32 0x52657175657374656420616D6F756E74206578636565647320636F6E74726163 PUSH1 0x0 DUP3 ADD MSTORE PUSH32 0x742062616C616E63650000000000000000000000000000000000000000000000 PUSH1 0x20 DUP3 ADD MSTORE POP JUMP JUMPDEST PUSH1 0x0 PUSH2 0x198E PUSH1 0x29 DUP4 PUSH2 0x114D JUMP JUMPDEST SWAP2 POP PUSH2 0x1999 DUP3 PUSH2 0x1932 JUMP JUMPDEST PUSH1 0x40 DUP3 ADD SWAP1 POP SWAP2 SWAP1 POP JUMP JUMPDEST PUSH1 0x0 PUSH1 0x20 DUP3 ADD SWAP1 POP DUP2 DUP2 SUB PUSH1 0x0 DUP4 ADD MSTORE PUSH2 0x19BD DUP2 PUSH2 0x1981 JUMP JUMPDEST SWAP1 POP SWAP2 SWAP1 POP JUMP JUMPDEST PUSH1 0x0 PUSH2 0x19CF DUP3 PUSH2 0x1273 JUMP JUMPDEST SWAP2 POP PUSH32 0xFFFFFFFFFFFFFFFFFFFFFFFFFFFFFFFFFFFFFFFFFFFFFFFFFFFFFFFFFFFFFFFF DUP3 SUB PUSH2 0x1A01 JUMPI PUSH2 0x1A00 PUSH2 0x174D JUMP JUMPDEST JUMPDEST PUSH1 0x1 DUP3 ADD SWAP1 POP SWAP2 SWAP1 POP JUMP JUMPDEST PUSH1 0x0 DUP2 SWAP1 POP DUP2 PUSH1 0x0 MSTORE PUSH1 0x20 PUSH1 0x0 KECCAK256 SWAP1 POP SWAP2 SWAP1 POP JUMP JUMPDEST PUSH1 0x0 PUSH1 0x20 PUSH1 0x1F DUP4 ADD DIV SWAP1 POP SWAP2 SWAP1 POP JUMP JUMPDEST PUSH1 0x0 DUP3 DUP3 SHL SWAP1 POP SWAP3 SWAP2 POP POP JUMP JUMPDEST PUSH1 0x0 PUSH1 0x8 DUP4 MUL PUSH2 0x1A6E PUSH32 0xFFFFFFFFFFFFFFFFFFFFFFFFFFFFFFFFFFFFFFFFFFFFFFFFFFFFFFFFFFFFFFFF DUP3 PUSH2 0x1A31 JUMP JUMPDEST PUSH2 0x1A78 DUP7 DUP4 PUSH2 0x1A31 JUMP JUMPDEST SWAP6 POP DUP1 NOT DUP5 AND SWAP4 POP DUP1 DUP7 AND DUP5 OR SWAP3 POP POP POP SWAP4 SWAP3 POP POP POP JUMP JUMPDEST PUSH1 0x0 DUP2 SWAP1 POP SWAP2 SWAP1 POP JUMP JUMPDEST PUSH1 0x0 PUSH2 0x1AB5 PUSH2 0x1AB0 PUSH2 0x1AAB DUP5 PUSH2 0x1273 JUMP JUMPDEST PUSH2 0x1A90 JUMP JUMPDEST PUSH2 0x1273 JUMP JUMPDEST SWAP1 POP SWAP2 SWAP1 POP JUMP JUMPDEST PUSH1 0x0 DUP2 SWAP1 POP SWAP2 SWAP1 POP JUMP JUMPDEST PUSH2 0x1ACF DUP4 PUSH2 0x1A9A JUMP JUMPDEST PUSH2 0x1AE3 PUSH2 0x1ADB DUP3 PUSH2 0x1ABC JUMP JUMPDEST DUP5 DUP5 SLOAD PUSH2 0x1A3E JUMP JUMPDEST DUP3 SSTORE POP POP POP POP JUMP JUMPDEST PUSH1 0x0 SWAP1 JUMP JUMPDEST PUSH2 0x1AF8 PUSH2 0x1AEB JUMP JUMPDEST PUSH2 0x1B03 DUP2 DUP5 DUP5 PUSH2 0x1AC6 JUMP JUMPDEST POP POP POP JUMP JUMPDEST JUMPDEST DUP2 DUP2 LT ISZERO PUSH2 0x1B27 JUMPI PUSH2 0x1B1C PUSH1 0x0 DUP3 PUSH2 0x1AF0 JUMP JUMPDEST PUSH1 0x1 DUP2 ADD SWAP1 POP PUSH2 0x1B09 JUMP JUMPDEST POP POP JUMP JUMPDEST PUSH1 0x1F DUP3 GT ISZERO PUSH2 0x1B6C JUMPI PUSH2 0x1B3D DUP2 PUSH2 0x1A0C JUMP JUMPDEST PUSH2 0x1B46 DUP5 PUSH2 0x1A21 JUMP JUMPDEST DUP2 ADD PUSH1 0x20 DUP6 LT ISZERO PUSH2 0x1B55 JUMPI DUP2 SWAP1 POP JUMPDEST PUSH2 0x1B69 PUSH2 0x1B61 DUP6 PUSH2 0x1A21 JUMP JUMPDEST DUP4 ADD DUP3 PUSH2 0x1B08 JUMP JUMPDEST POP POP JUMPDEST POP POP POP JUMP JUMPDEST PUSH1 0x0 DUP3 DUP3 SHR SWAP1 POP SWAP3 SWAP2 POP POP JUMP JUMPDEST PUSH1 0x0 PUSH2 0x1B8F PUSH1 0x0 NOT DUP5 PUSH1 0x8 MUL PUSH2 0x1B71 JUMP JUMPDEST NOT DUP1 DUP4 AND SWAP2 POP POP SWAP3 SWAP2 POP POP JUMP JUMPDEST PUSH1 0x0 PUSH2 0x1BA8 DUP4 DUP4 PUSH2 0x1B7E JUMP JUMPDEST SWAP2 POP DUP3 PUSH1 0x2 MUL DUP3 OR SWAP1 POP SWAP3 SWAP2 POP POP JUMP JUMPDEST PUSH2 0x1BC1 DUP3 PUSH2 0x1142 JUMP JUMPDEST PUSH8 0xFFFFFFFFFFFFFFFF DUP2 GT ISZERO PUSH2 0x1BDA JUMPI PUSH2 0x1BD9 PUSH2 0x130A JUMP JUMPDEST JUMPDEST PUSH2 0x1BE4 DUP3 SLOAD PUSH2 0x1644 JUMP JUMPDEST PUSH2 0x1BEF DUP3 DUP3 DUP6 PUSH2 0x1B2B JUMP JUMPDEST PUSH1 0x0 PUSH1 0x20 SWAP1 POP PUSH1 0x1F DUP4 GT PUSH1 0x1 DUP2 EQ PUSH2 0x1C22 JUMPI PUSH1 0x0 DUP5 ISZERO PUSH2 0x1C10 JUMPI DUP3 DUP8 ADD MLOAD SWAP1 POP JUMPDEST PUSH2 0x1C1A DUP6 DUP3 PUSH2 0x1B9C JUMP JUMPDEST DUP7 SSTORE POP PUSH2 0x1C82 JUMP JUMPDEST PUSH1 0x1F NOT DUP5 AND PUSH2 0x1C30 DUP7 PUSH2 0x1A0C JUMP JUMPDEST PUSH1 0x0 JUMPDEST DUP3 DUP2 LT ISZERO PUSH2 0x1C58 JUMPI DUP5 DUP10 ADD MLOAD DUP3 SSTORE PUSH1 0x1 DUP3 ADD SWAP2 POP PUSH1 0x20 DUP6 ADD SWAP5 POP PUSH1 0x20 DUP2 ADD SWAP1 POP PUSH2 0x1C33 JUMP JUMPDEST DUP7 DUP4 LT ISZERO PUSH2 0x1C75 JUMPI DUP5 DUP10 ADD MLOAD PUSH2 0x1C71 PUSH1 0x1F DUP10 AND DUP3 PUSH2 0x1B7E JUMP JUMPDEST DUP4 SSTORE POP JUMPDEST PUSH1 0x1 PUSH1 0x2 DUP9 MUL ADD DUP9 SSTORE POP POP POP JUMPDEST POP POP POP POP POP POP JUMP JUMPDEST PUSH1 0x0 PUSH2 0x1CA5 PUSH2 0x1CA0 PUSH2 0x1C9B DUP5 PUSH2 0x10E6 JUMP JUMPDEST PUSH2 0x1A90 JUMP JUMPDEST PUSH2 0x10E6 JUMP JUMPDEST SWAP1 POP SWAP2 SWAP1 POP JUMP JUMPDEST PUSH1 0x0 PUSH2 0x1CB7 DUP3 PUSH2 0x1C8A JUMP JUMPDEST SWAP1 POP SWAP2 SWAP1 POP JUMP JUMPDEST PUSH1 0x0 PUSH2 0x1CC9 DUP3 PUSH2 0x1CAC JUMP JUMPDEST SWAP1 POP SWAP2 SWAP1 POP JUMP JUMPDEST PUSH2 0x1CD9 DUP2 PUSH2 0x1CBE JUMP JUMPDEST DUP3 MSTORE POP POP JUMP JUMPDEST PUSH1 0x0 PUSH1 0x80 DUP3 ADD SWAP1 POP PUSH2 0x1CF4 PUSH1 0x0 DUP4 ADD DUP8 PUSH2 0x127D JUMP JUMPDEST DUP2 DUP2 SUB PUSH1 0x20 DUP4 ADD MSTORE PUSH2 0x1D06 DUP2 DUP7 PUSH2 0x1199 JUMP JUMPDEST SWAP1 POP PUSH2 0x1D15 PUSH1 0x40 DUP4 ADD DUP6 PUSH2 0x127D JUMP JUMPDEST PUSH2 0x1D22 PUSH1 0x60 DUP4 ADD DUP5 PUSH2 0x1CD0 JUMP JUMPDEST SWAP6 SWAP5 POP POP POP POP POP JUMP JUMPDEST PUSH32 0x416D6F756E74206C657373207468616E20746865206D696E696D756D20636F6E PUSH1 0x0 DUP3 ADD MSTORE PUSH32 0x747269627574696F6E2100000000000000000000000000000000000000000000 PUSH1 0x20 DUP3 ADD MSTORE POP JUMP JUMPDEST PUSH1 0x0 PUSH2 0x1D87 PUSH1 0x2A DUP4 PUSH2 0x114D JUMP JUMPDEST SWAP2 POP PUSH2 0x1D92 DUP3 PUSH2 0x1D2B JUMP JUMPDEST PUSH1 0x40 DUP3 ADD SWAP1 POP SWAP2 SWAP1 POP JUMP JUMPDEST PUSH1 0x0 PUSH1 0x20 DUP3 ADD SWAP1 POP DUP2 DUP2 SUB PUSH1 0x0 DUP4 ADD MSTORE PUSH2 0x1DB6 DUP2 PUSH2 0x1D7A JUMP JUMPDEST SWAP1 POP SWAP2 SWAP1 POP JUMP JUMPDEST PUSH32 0x43616E6E6F7420636F6E74726962757465206174207468697320737461676521 PUSH1 0x0 DUP3 ADD MSTORE POP JUMP JUMPDEST PUSH1 0x0 PUSH2 0x1DF3 PUSH1 0x20 DUP4 PUSH2 0x114D JUMP JUMPDEST SWAP2 POP PUSH2 0x1DFE DUP3 PUSH2 0x1DBD JUMP JUMPDEST PUSH1 0x20 DUP3 ADD SWAP1 POP SWAP2 SWAP1 POP JUMP JUMPDEST PUSH1 0x0 PUSH1 0x20 DUP3 ADD SWAP1 POP DUP2 DUP2 SUB PUSH1 0x0 DUP4 ADD MSTORE PUSH2 0x1E22 DUP2 PUSH2 0x1DE6 JUMP JUMPDEST SWAP1 POP SWAP2 SWAP1 POP JUMP JUMPDEST PUSH1 0x0 PUSH1 0x60 DUP3 ADD SWAP1 POP PUSH2 0x1E3E PUSH1 0x0 DUP4 ADD DUP7 PUSH2 0x17B0 JUMP JUMPDEST PUSH2 0x1E4B PUSH1 0x20 DUP4 ADD DUP6 PUSH2 0x127D JUMP JUMPDEST PUSH2 0x1E58 PUSH1 0x40 DUP4 ADD DUP5 PUSH2 0x127D JUMP JUMPDEST SWAP5 SWAP4 POP POP POP POP JUMP JUMPDEST PUSH32 0x5265717565737420616C726561647920636F6D706C6574656400000000000000 PUSH1 0x0 DUP3 ADD MSTORE POP JUMP JUMPDEST PUSH1 0x0 PUSH2 0x1E96 PUSH1 0x19 DUP4 PUSH2 0x114D JUMP JUMPDEST SWAP2 POP PUSH2 0x1EA1 DUP3 PUSH2 0x1E60 JUMP JUMPDEST PUSH1 0x20 DUP3 ADD SWAP1 POP SWAP2 SWAP1 POP JUMP JUMPDEST PUSH1 0x0 PUSH1 0x20 DUP3 ADD SWAP1 POP DUP2 DUP2 SUB PUSH1 0x0 DUP4 ADD MSTORE PUSH2 0x1EC5 DUP2 PUSH2 0x1E89 JUMP JUMPDEST SWAP1 POP SWAP2 SWAP1 POP JUMP JUMPDEST PUSH32 0x4E487B7100000000000000000000000000000000000000000000000000000000 PUSH1 0x0 MSTORE PUSH1 0x12 PUSH1 0x4 MSTORE PUSH1 0x24 PUSH1 0x0 REVERT JUMPDEST PUSH1 0x0 PUSH2 0x1F06 DUP3 PUSH2 0x1273 JUMP JUMPDEST SWAP2 POP PUSH2 0x1F11 DUP4 PUSH2 0x1273 JUMP JUMPDEST SWAP3 POP DUP3 PUSH2 0x1F21 JUMPI PUSH2 0x1F20 PUSH2 0x1ECC JUMP JUMPDEST JUMPDEST DUP3 DUP3 DIV SWAP1 POP SWAP3 SWAP2 POP POP JUMP JUMPDEST PUSH32 0x4174206C656173742035302520636F6E7472696275746F72732028627920616D PUSH1 0x0 DUP3 ADD MSTORE PUSH32 0x6F756E7429206E65656420746F20766F746520666F7220746869732072657175 PUSH1 0x20 DUP3 ADD MSTORE PUSH32 0x6573740000000000000000000000000000000000000000000000000000000000 PUSH1 0x40 DUP3 ADD MSTORE POP JUMP JUMPDEST PUSH1 0x0 PUSH2 0x1FAE PUSH1 0x43 DUP4 PUSH2 0x114D JUMP JUMPDEST SWAP2 POP PUSH2 0x1FB9 DUP3 PUSH2 0x1F2C JUMP JUMPDEST PUSH1 0x60 DUP3 ADD SWAP1 POP SWAP2 SWAP1 POP JUMP JUMPDEST PUSH1 0x0 PUSH1 0x20 DUP3 ADD SWAP1 POP DUP2 DUP2 SUB PUSH1 0x0 DUP4 ADD MSTORE PUSH2 0x1FDD DUP2 PUSH2 0x1FA1 JUMP JUMPDEST SWAP1 POP SWAP2 SWAP1 POP JUMP JUMPDEST PUSH1 0x0 PUSH1 0x60 DUP3 ADD SWAP1 POP PUSH2 0x1FF9 PUSH1 0x0 DUP4 ADD DUP7 PUSH2 0x127D JUMP JUMPDEST PUSH2 0x2006 PUSH1 0x20 DUP4 ADD DUP6 PUSH2 0x127D JUMP JUMPDEST PUSH2 0x2013 PUSH1 0x40 DUP4 ADD DUP5 PUSH2 0x1CD0 JUMP JUMPDEST SWAP5 SWAP4 POP POP POP POP JUMP JUMPDEST PUSH32 0x4E487B7100000000000000000000000000000000000000000000000000000000 PUSH1 0x0 MSTORE PUSH1 0x51 PUSH1 0x4 MSTORE PUSH1 0x24 PUSH1 0x0 REVERT INVALID LOG2 PUSH5 0x6970667358 0x22 SLT KECCAK256 0xC7 0xE3 ADDMOD 0x4A 0x23 0xC DELEGATECALL 0x2C 0x2F 0x49 0x2B PUSH26 0x282A93BF266AA40C4C4CA40F2E63FDB7D0CF669E64736F6C6343 STOP ADDMOD SGT STOP CALLER "},"methodIdentifiers":{"contribute(address)":"73e888fd","contributors(address)":"1f6d4942","createWithdrawRequest(string,uint256)":"5b6b98b9","creator()":"02d05d3f","getContractBalance()":"6f9fb98a","getProjectDetails()":"ff3a9c7e","minimumContribution()":"937e09b1","noOfContributors()":"4e260f6f","numOfWithdrawRequests()":"b40141bf","projectDes()":"03c29d58","projectTitle()":"c3e20c9f","raisedAmount()":"c59ee1dc","state()":"c19d93fb","targetContribution()":"b82c86d6","voteWithdrawRequest(uint256)":"4e695a37","withdrawRequestedAmount(uint256)":"752e19f9","withdrawRequests(uint256)":"992a7dfb"}}}}}