{
  "_format": "hh-sol-artifact-1",
  "contractName": "Crowdfunding",
  "sourceName": "contracts/Crowdfunding.sol",
  "abi": [
    {
      "inputs": [],
      "stateMutability": "nonpayable",
      "type": "constructor"
    },
    {
      "anonymous": false,
      "inputs": [
        {
          "indexed": true,
          "internalType": "address",
          "name": "projectAddress",
          "type": "address"
        },
        {
          "indexed": false,
          "internalType": "uint256",
          "name": "contributedAmount",
          "type": "uint256"
        },
        {
          "indexed": true,
          "internalType": "address",
          "name": "contributor",
          "type": "address"
        }
      ],
      "name": "ContributionReceived",
      "type": "event"
    },
    {
      "anonymous": false,
      "inputs": [
        {
          "indexed": false,
          "internalType": "uint256",
          "name": "requestId",
          "type": "uint256"
        },
        {
          "indexed": false,
          "internalType": "address",
          "name": "requester",
          "type": "address"
        },
        {
          "indexed": false,
          "internalType": "uint256",
          "name": "goalAmount",
          "type": "uint256"
        },
        {
          "indexed": false,
          "internalType": "string",
          "name": "title",
          "type": "string"
        },
        {
          "indexed": false,
          "internalType": "string",
          "name": "desc",
          "type": "string"
        }
      ],
      "name": "ProjectRequestCreated",
      "type": "event"
    },
    {
      "anonymous": false,
      "inputs": [
        {
          "indexed": true,
          "internalType": "address",
          "name": "projectContractAddress",
          "type": "address"
        },
        {
          "indexed": true,
          "internalType": "address",
          "name": "creator",
          "type": "address"
        },
        {
          "indexed": false,
          "internalType": "uint256",
          "name": "goalAmount",
          "type": "uint256"
        },
        {
          "indexed": false,
          "internalType": "string",
          "name": "title",
          "type": "string"
        },
        {
          "indexed": false,
          "internalType": "string",
          "name": "desc",
          "type": "string"
        }
      ],
      "name": "ProjectStarted",
      "type": "event"
    },
    {
      "inputs": [],
      "name": "admin",
      "outputs": [
        {
          "internalType": "address",
          "name": "",
          "type": "address"
        }
      ],
      "stateMutability": "view",
      "type": "function"
    },
    {
      "inputs": [
        {
          "internalType": "uint256",
          "name": "_requestId",
          "type": "uint256"
        }
      ],
      "name": "approveProjectRequest",
      "outputs": [],
      "stateMutability": "nonpayable",
      "type": "function"
    },
    {
      "inputs": [
        {
          "internalType": "address",
          "name": "_projectAddress",
          "type": "address"
        }
      ],
      "name": "contribute",
      "outputs": [],
      "stateMutability": "payable",
      "type": "function"
    },
    {
      "inputs": [
        {
          "internalType": "address",
          "name": "",
          "type": "address"
        }
      ],
      "name": "creatorsToProjects",
      "outputs": [
        {
          "internalType": "address",
          "name": "",
          "type": "address"
        }
      ],
      "stateMutability": "view",
      "type": "function"
    },
    {
      "inputs": [
        {
          "internalType": "address",
          "name": "creator",
          "type": "address"
        }
      ],
      "name": "getProjectByCreator",
      "outputs": [
        {
          "internalType": "address",
          "name": "",
          "type": "address"
        }
      ],
      "stateMutability": "view",
      "type": "function"
    },
    {
      "inputs": [
        {
          "internalType": "address",
          "name": "_projectAddress",
          "type": "address"
        }
      ],
      "name": "getProjectIdByAddress",
      "outputs": [
        {
          "internalType": "uint256",
          "name": "",
          "type": "uint256"
        }
      ],
      "stateMutability": "view",
      "type": "function"
    },
    {
      "inputs": [
        {
          "internalType": "address",
          "name": "",
          "type": "address"
        }
      ],
      "name": "projectAddressesToIds",
      "outputs": [
        {
          "internalType": "uint256",
          "name": "",
          "type": "uint256"
        }
      ],
      "stateMutability": "view",
      "type": "function"
    },
    {
      "inputs": [
        {
          "internalType": "uint256",
          "name": "",
          "type": "uint256"
        }
      ],
      "name": "projectRequests",
      "outputs": [
        {
          "internalType": "address",
          "name": "requester",
          "type": "address"
        },
        {
          "internalType": "uint256",
          "name": "targetContribution",
          "type": "uint256"
        },
        {
          "internalType": "uint256",
          "name": "minimumContribution",
          "type": "uint256"
        },
        {
          "internalType": "string",
          "name": "projectTitle",
          "type": "string"
        },
        {
          "internalType": "string",
          "name": "projectDesc",
          "type": "string"
        },
        {
          "internalType": "bool",
          "name": "approved",
          "type": "bool"
        }
      ],
      "stateMutability": "view",
      "type": "function"
    },
    {
      "inputs": [
        {
          "internalType": "uint256",
          "name": "_targetContribution",
          "type": "uint256"
        },
        {
          "internalType": "uint256",
          "name": "_minimumContribution",
          "type": "uint256"
        },
        {
          "internalType": "string",
          "name": "_projectTitle",
          "type": "string"
        },
        {
          "internalType": "string",
          "name": "_projectDesc",
          "type": "string"
        }
      ],
      "name": "requestProjectCreation",
      "outputs": [],
      "stateMutability": "nonpayable",
      "type": "function"
    },
    {
      "inputs": [],
      "name": "returnAllProjects",
      "outputs": [
        {
          "internalType": "contract Project[]",
          "name": "",
          "type": "address[]"
        }
      ],
      "stateMutability": "view",
      "type": "function"
    }
  ],
  "bytecode": "0x608060405234801561001057600080fd5b50336000806101000a81548173ffffffffffffffffffffffffffffffffffffffff021916908373ffffffffffffffffffffffffffffffffffffffff1602179055506147ef806100606000396000f3fe6080604052600436106200009e5760003560e01c8063bb0b1cc71162000061578063bb0b1cc714620001bf578063c19ded1314620001ed578063ebf67e8d1462000236578063f851a4401462000264578063fce0105e1462000294576200009e565b80635a72d77014620000a357806373e888fd14620000e75780637add5ed5146200010757806385b6e28e146200014b578063a860eec2146200017b575b600080fd5b348015620000b057600080fd5b50620000cf6004803603810190620000c9919062000f72565b620002d8565b604051620000de919062000fb5565b60405180910390f35b620001056004803603810190620000ff919062000f72565b6200030b565b005b3480156200011457600080fd5b506200013360048036038101906200012d919062000f72565b620004cc565b60405162000142919062000fed565b60405180910390f35b3480156200015857600080fd5b5062000163620004e4565b60405162000172919062001132565b60405180910390f35b3480156200018857600080fd5b50620001a76004803603810190620001a1919062000f72565b62000574565b604051620001b6919062000fed565b60405180910390f35b348015620001cc57600080fd5b50620001eb6004803603810190620001e5919062001187565b62000608565b005b348015620001fa57600080fd5b5062000219600480360381019062000213919062001187565b62000a4f565b6040516200022d9695949392919062001270565b60405180910390f35b3480156200024357600080fd5b506200026260048036038101906200025c91906200143c565b62000be9565b005b3480156200027157600080fd5b506200027c62000d67565b6040516200028b919062000fb5565b60405180910390f35b348015620002a157600080fd5b50620002c06004803603810190620002ba919062000f72565b62000d8b565b604051620002cf919062000fb5565b60405180910390f35b60016020528060005260406000206000915054906101000a900473ffffffffffffffffffffffffffffffffffffffff1681565b600081905060006001811115620003275762000326620014ec565b5b8173ffffffffffffffffffffffffffffffffffffffff1663c19d93fb6040518163ffffffff1660e01b8152600401602060405180830381865afa15801562000373573d6000803e3d6000fd5b505050506040513d601f19601f8201168201806040525081019062000399919062001543565b6001811115620003ae57620003ad620014ec565b5b14620003f1576040517f08c379a0000000000000000000000000000000000000000000000000000000008152600401620003e890620015c5565b60405180910390fd5b8073ffffffffffffffffffffffffffffffffffffffff166373e888fd34336040518363ffffffff1660e01b81526004016200042d919062000fb5565b6000604051808303818588803b1580156200044757600080fd5b505af11580156200045c573d6000803e3d6000fd5b50505050503373ffffffffffffffffffffffffffffffffffffffff168273ffffffffffffffffffffffffffffffffffffffff167f0829c5c9dc5d14e41b11cfca0f01f76eba69b648ddcf9f84afba16ba8a76bf1c34604051620004c0919062000fed565b60405180910390a35050565b60026020528060005260406000206000915090505481565b606060048054806020026020016040519081016040528092919081815260200182805480156200056a57602002820191906000526020600020905b8160009054906101000a900473ffffffffffffffffffffffffffffffffffffffff1673ffffffffffffffffffffffffffffffffffffffff16815260200190600101908083116200051f575b5050505050905090565b600080600260008473ffffffffffffffffffffffffffffffffffffffff1673ffffffffffffffffffffffffffffffffffffffff16815260200190815260200160002054905060008103620005ff576040517f08c379a0000000000000000000000000000000000000000000000000000000008152600401620005f69062001637565b60405180910390fd5b80915050919050565b60008054906101000a900473ffffffffffffffffffffffffffffffffffffffff1673ffffffffffffffffffffffffffffffffffffffff163373ffffffffffffffffffffffffffffffffffffffff161462000699576040517f08c379a00000000000000000000000000000000000000000000000000000000081526004016200069090620016cf565b60405180910390fd5b6003805490508110620006e3576040517f08c379a0000000000000000000000000000000000000000000000000000000008152600401620006da9062001741565b60405180910390fd5b60038181548110620006fa57620006f962001763565b5b906000526020600020906006020160050160009054906101000a900460ff16156200075c576040517f08c379a00000000000000000000000000000000000000000000000000000000081526004016200075390620017e2565b60405180910390fd5b60006003828154811062000775576200077462001763565b5b9060005260206000209060060201905060018160050160006101000a81548160ff02191690831515021790555060008160000160009054906101000a900473ffffffffffffffffffffffffffffffffffffffff16826001015483600201548460030185600401604051620007e99062000edf565b620007f99594939291906200190d565b604051809103906000f08015801562000816573d6000803e3d6000fd5b509050600183620008289190620019a7565b600260008373ffffffffffffffffffffffffffffffffffffffff1673ffffffffffffffffffffffffffffffffffffffff1681526020019081526020016000208190555080600160008460000160009054906101000a900473ffffffffffffffffffffffffffffffffffffffff1673ffffffffffffffffffffffffffffffffffffffff1673ffffffffffffffffffffffffffffffffffffffff16815260200190815260200160002060006101000a81548173ffffffffffffffffffffffffffffffffffffffff021916908373ffffffffffffffffffffffffffffffffffffffff1602179055506004819080600181540180825580915050600190039060005260206000200160009091909190916101000a81548173ffffffffffffffffffffffffffffffffffffffff021916908373ffffffffffffffffffffffffffffffffffffffff160217905550620009b16040518060400160405280601d81526020017f4e65772050726f6a65637420436f6e747261637420416464726573733a0000008152508262000df4565b8160000160009054906101000a900473ffffffffffffffffffffffffffffffffffffffff1673ffffffffffffffffffffffffffffffffffffffff168173ffffffffffffffffffffffffffffffffffffffff167fe72c08db3c14e123448b6646057940a9aff2d74ed267cfc6d801cbcdb9119b698460010154856003018660040160405162000a4293929190620019e2565b60405180910390a3505050565b6003818154811062000a6057600080fd5b90600052602060002090600602016000915090508060000160009054906101000a900473ffffffffffffffffffffffffffffffffffffffff169080600101549080600201549080600301805462000ab79062001833565b80601f016020809104026020016040519081016040528092919081815260200182805462000ae59062001833565b801562000b365780601f1062000b0a5761010080835404028352916020019162000b36565b820191906000526020600020905b81548152906001019060200180831162000b1857829003601f168201915b50505050509080600401805462000b4d9062001833565b80601f016020809104026020016040519081016040528092919081815260200182805462000b7b9062001833565b801562000bcc5780601f1062000ba05761010080835404028352916020019162000bcc565b820191906000526020600020905b81548152906001019060200180831162000bae57829003601f168201915b5050505050908060050160009054906101000a900460ff16905086565b60006040518060c001604052803373ffffffffffffffffffffffffffffffffffffffff168152602001868152602001858152602001848152602001838152602001600015158152509050600381908060018154018082558091505060019003906000526020600020906006020160009091909190915060008201518160000160006101000a81548173ffffffffffffffffffffffffffffffffffffffff021916908373ffffffffffffffffffffffffffffffffffffffff1602179055506020820151816001015560408201518160020155606082015181600301908162000cd1919062001be0565b50608082015181600401908162000ce9919062001be0565b5060a08201518160050160006101000a81548160ff02191690831515021790555050507f2a36c803646dbed82a7d3664a78a20c0ba70e8a8405f8479dab6a6da7962a655600160038054905062000d41919062001cc7565b3387868660405162000d5895949392919062001d02565b60405180910390a15050505050565b60008054906101000a900473ffffffffffffffffffffffffffffffffffffffff1681565b6000600160008373ffffffffffffffffffffffffffffffffffffffff1673ffffffffffffffffffffffffffffffffffffffff16815260200190815260200160002060009054906101000a900473ffffffffffffffffffffffffffffffffffffffff169050919050565b62000e90828260405160240162000e0d92919062001d6d565b6040516020818303038152906040527f319af333000000000000000000000000000000000000000000000000000000007bffffffffffffffffffffffffffffffffffffffffffffffffffffffff19166020820180517bffffffffffffffffffffffffffffffffffffffffffffffffffffffff838183161783525050505062000e94565b5050565b62000eaf8162000ea762000eb262000ed3565b63ffffffff16565b50565b60006a636f6e736f6c652e6c6f679050600080835160208501845afa505050565b62000eed819050919050565b6129e98062001dd183390190565b62000ef762001da1565b565b6000604051905090565b600080fd5b600080fd5b600073ffffffffffffffffffffffffffffffffffffffff82169050919050565b600062000f3a8262000f0d565b9050919050565b62000f4c8162000f2d565b811462000f5857600080fd5b50565b60008135905062000f6c8162000f41565b92915050565b60006020828403121562000f8b5762000f8a62000f03565b5b600062000f9b8482850162000f5b565b91505092915050565b62000faf8162000f2d565b82525050565b600060208201905062000fcc600083018462000fa4565b92915050565b6000819050919050565b62000fe78162000fd2565b82525050565b600060208201905062001004600083018462000fdc565b92915050565b600081519050919050565b600082825260208201905092915050565b6000819050602082019050919050565b6000819050919050565b6000620010616200105b620010558462000f0d565b62001036565b62000f0d565b9050919050565b6000620010758262001040565b9050919050565b6000620010898262001068565b9050919050565b6200109b816200107c565b82525050565b6000620010af838362001090565b60208301905092915050565b6000602082019050919050565b6000620010d5826200100a565b620010e1818562001015565b9350620010ee8362001026565b8060005b8381101562001125578151620011098882620010a1565b97506200111683620010bb565b925050600181019050620010f2565b5085935050505092915050565b600060208201905081810360008301526200114e8184620010c8565b905092915050565b620011618162000fd2565b81146200116d57600080fd5b50565b600081359050620011818162001156565b92915050565b600060208284031215620011a0576200119f62000f03565b5b6000620011b08482850162001170565b91505092915050565b600081519050919050565b600082825260208201905092915050565b60005b83811015620011f5578082015181840152602081019050620011d8565b60008484015250505050565b6000601f19601f8301169050919050565b60006200121f82620011b9565b6200122b8185620011c4565b93506200123d818560208601620011d5565b620012488162001201565b840191505092915050565b60008115159050919050565b6200126a8162001253565b82525050565b600060c08201905062001287600083018962000fa4565b62001296602083018862000fdc565b620012a5604083018762000fdc565b8181036060830152620012b9818662001212565b90508181036080830152620012cf818562001212565b9050620012e060a08301846200125f565b979650505050505050565b600080fd5b600080fd5b7f4e487b7100000000000000000000000000000000000000000000000000000000600052604160045260246000fd5b6200132f8262001201565b810181811067ffffffffffffffff82111715620013515762001350620012f5565b5b80604052505050565b60006200136662000ef9565b905062001374828262001324565b919050565b600067ffffffffffffffff821115620013975762001396620012f5565b5b620013a28262001201565b9050602081019050919050565b82818337600083830152505050565b6000620013d5620013cf8462001379565b6200135a565b905082815260208101848484011115620013f457620013f3620012f0565b5b62001401848285620013af565b509392505050565b600082601f830112620014215762001420620012eb565b5b813562001433848260208601620013be565b91505092915050565b6000806000806080858703121562001459576200145862000f03565b5b6000620014698782880162001170565b94505060206200147c8782880162001170565b935050604085013567ffffffffffffffff811115620014a0576200149f62000f08565b5b620014ae8782880162001409565b925050606085013567ffffffffffffffff811115620014d257620014d162000f08565b5b620014e08782880162001409565b91505092959194509250565b7f4e487b7100000000000000000000000000000000000000000000000000000000600052602160045260246000fd5b600281106200152957600080fd5b50565b6000815190506200153d816200151b565b92915050565b6000602082840312156200155c576200155b62000f03565b5b60006200156c848285016200152c565b91505092915050565b7f496e76616c696420737461746500000000000000000000000000000000000000600082015250565b6000620015ad600d83620011c4565b9150620015ba8262001575565b602082019050919050565b60006020820190508181036000830152620015e0816200159e565b9050919050565b7f50726f6a6563742061646472657373206e6f7420666f756e6421000000000000600082015250565b60006200161f601a83620011c4565b91506200162c82620015e7565b602082019050919050565b60006020820190508181036000830152620016528162001610565b9050919050565b7f4f6e6c792061646d696e2063616e20706572666f726d2074686973206f70657260008201527f6174696f6e210000000000000000000000000000000000000000000000000000602082015250565b6000620016b7602683620011c4565b9150620016c48262001659565b604082019050919050565b60006020820190508181036000830152620016ea81620016a8565b9050919050565b7f496e76616c696420726571756573742049440000000000000000000000000000600082015250565b600062001729601283620011c4565b91506200173682620016f1565b602082019050919050565b600060208201905081810360008301526200175c816200171a565b9050919050565b7f4e487b7100000000000000000000000000000000000000000000000000000000600052603260045260246000fd5b7f50726f6a65637420616c726561647920617070726f7665640000000000000000600082015250565b6000620017ca601883620011c4565b9150620017d78262001792565b602082019050919050565b60006020820190508181036000830152620017fd81620017bb565b9050919050565b7f4e487b7100000000000000000000000000000000000000000000000000000000600052602260045260246000fd5b600060028204905060018216806200184c57607f821691505b60208210810362001862576200186162001804565b5b50919050565b60008190508160005260206000209050919050565b600081546200188c8162001833565b620018988186620011c4565b94506001821660008114620018b65760018114620018cd5762001904565b60ff19831686528115156020028601935062001904565b620018d88562001868565b60005b83811015620018fc57815481890152600182019150602081019050620018db565b808801955050505b50505092915050565b600060a08201905062001924600083018862000fa4565b62001933602083018762000fdc565b62001942604083018662000fdc565b81810360608301526200195681856200187d565b905081810360808301526200196c81846200187d565b90509695505050505050565b7f4e487b7100000000000000000000000000000000000000000000000000000000600052601160045260246000fd5b6000620019b48262000fd2565b9150620019c18362000fd2565b9250828201905080821115620019dc57620019db62001978565b5b92915050565b6000606082019050620019f9600083018662000fdc565b818103602083015262001a0d81856200187d565b9050818103604083015262001a2381846200187d565b9050949350505050565b60006020601f8301049050919050565b600082821b905092915050565b60006008830262001a7c7fffffffffffffffffffffffffffffffffffffffffffffffffffffffffffffffff8262001a3d565b62001a88868362001a3d565b95508019841693508086168417925050509392505050565b600062001ac162001abb62001ab58462000fd2565b62001036565b62000fd2565b9050919050565b6000819050919050565b62001add8362001aa0565b62001af562001aec8262001ac8565b84845462001a4a565b825550505050565b600090565b62001b0c62001afd565b62001b1981848462001ad2565b505050565b5b8181101562001b415762001b3560008262001b02565b60018101905062001b1f565b5050565b601f82111562001b905762001b5a8162001868565b62001b658462001a2d565b8101602085101562001b75578190505b62001b8d62001b848562001a2d565b83018262001b1e565b50505b505050565b600082821c905092915050565b600062001bb56000198460080262001b95565b1980831691505092915050565b600062001bd0838362001ba2565b9150826002028217905092915050565b62001beb82620011b9565b67ffffffffffffffff81111562001c075762001c06620012f5565b5b62001c13825462001833565b62001c2082828562001b45565b600060209050601f83116001811462001c58576000841562001c43578287015190505b62001c4f858262001bc2565b86555062001cbf565b601f19841662001c688662001868565b60005b8281101562001c925784890151825560018201915060208501945060208101905062001c6b565b8683101562001cb2578489015162001cae601f89168262001ba2565b8355505b6001600288020188555050505b505050505050565b600062001cd48262000fd2565b915062001ce18362000fd2565b925082820390508181111562001cfc5762001cfb62001978565b5b92915050565b600060a08201905062001d19600083018862000fdc565b62001d28602083018762000fa4565b62001d37604083018662000fdc565b818103606083015262001d4b818562001212565b9050818103608083015262001d61818462001212565b90509695505050505050565b6000604082019050818103600083015262001d89818562001212565b905062001d9a602083018462000fa4565b9392505050565b7f4e487b7100000000000000000000000000000000000000000000000000000000600052605160045260246000fdfe608060405260006003556000600760006101000a81548160ff0219169083600181111562000032576200003162000243565b5b02179055506000600a553480156200004957600080fd5b50604051620029e9380380620029e983398181016040528101906200006f9190620004a5565b846000806101000a81548173ffffffffffffffffffffffffffffffffffffffff021916908373ffffffffffffffffffffffffffffffffffffffff16021790555083600181905550826002819055508160059081620000ce9190620007ac565b508060069081620000e09190620007ac565b50620001286040518060400160405280601c81526020017f50726f6a65637420436f6e747261637420437265617465642061743a00000000815250306200013360201b60201c565b505050505062000959565b620001d582826040516024016200014c929190620008f6565b6040516020818303038152906040527f319af333000000000000000000000000000000000000000000000000000000007bffffffffffffffffffffffffffffffffffffffffffffffffffffffff19166020820180517bffffffffffffffffffffffffffffffffffffffffffffffffffffffff8381831617835250505050620001d960201b60201c565b5050565b620001ff81620001fa6200020260201b620010bb176200022360201b60201c565b60201c565b50565b60006a636f6e736f6c652e6c6f679050600080835160208501845afa505050565b6200023760201b620010dc17819050919050565b620002416200092a565b565b7f4e487b7100000000000000000000000000000000000000000000000000000000600052602160045260246000fd5b6000604051905090565b600080fd5b600080fd5b600073ffffffffffffffffffffffffffffffffffffffff82169050919050565b6000620002b38262000286565b9050919050565b620002c581620002a6565b8114620002d157600080fd5b50565b600081519050620002e581620002ba565b92915050565b6000819050919050565b6200030081620002eb565b81146200030c57600080fd5b50565b6000815190506200032081620002f5565b92915050565b600080fd5b600080fd5b6000601f19601f8301169050919050565b7f4e487b7100000000000000000000000000000000000000000000000000000000600052604160045260246000fd5b6200037b8262000330565b810181811067ffffffffffffffff821117156200039d576200039c62000341565b5b80604052505050565b6000620003b262000272565b9050620003c0828262000370565b919050565b600067ffffffffffffffff821115620003e357620003e262000341565b5b620003ee8262000330565b9050602081019050919050565b60005b838110156200041b578082015181840152602081019050620003fe565b60008484015250505050565b60006200043e6200043884620003c5565b620003a6565b9050828152602081018484840111156200045d576200045c6200032b565b5b6200046a848285620003fb565b509392505050565b600082601f8301126200048a576200048962000326565b5b81516200049c84826020860162000427565b91505092915050565b600080600080600060a08688031215620004c457620004c36200027c565b5b6000620004d488828901620002d4565b9550506020620004e7888289016200030f565b9450506040620004fa888289016200030f565b935050606086015167ffffffffffffffff8111156200051e576200051d62000281565b5b6200052c8882890162000472565b925050608086015167ffffffffffffffff81111562000550576200054f62000281565b5b6200055e8882890162000472565b9150509295509295909350565b600081519050919050565b7f4e487b7100000000000000000000000000000000000000000000000000000000600052602260045260246000fd5b60006002820490506001821680620005be57607f821691505b602082108103620005d457620005d362000576565b5b50919050565b60008190508160005260206000209050919050565b60006020601f8301049050919050565b600082821b905092915050565b6000600883026200063e7fffffffffffffffffffffffffffffffffffffffffffffffffffffffffffffffff82620005ff565b6200064a8683620005ff565b95508019841693508086168417925050509392505050565b6000819050919050565b60006200068d620006876200068184620002eb565b62000662565b620002eb565b9050919050565b6000819050919050565b620006a9836200066c565b620006c1620006b88262000694565b8484546200060c565b825550505050565b600090565b620006d8620006c9565b620006e58184846200069e565b505050565b5b818110156200070d5762000701600082620006ce565b600181019050620006eb565b5050565b601f8211156200075c576200072681620005da565b6200073184620005ef565b8101602085101562000741578190505b620007596200075085620005ef565b830182620006ea565b50505b505050565b600082821c905092915050565b6000620007816000198460080262000761565b1980831691505092915050565b60006200079c83836200076e565b9150826002028217905092915050565b620007b7826200056b565b67ffffffffffffffff811115620007d357620007d262000341565b5b620007df8254620005a5565b620007ec82828562000711565b600060209050601f8311600181146200082457600084156200080f578287015190505b6200081b85826200078e565b8655506200088b565b601f1984166200083486620005da565b60005b828110156200085e5784890151825560018201915060208501945060208101905062000837565b868310156200087e57848901516200087a601f8916826200076e565b8355505b6001600288020188555050505b505050505050565b600082825260208201905092915050565b6000620008b1826200056b565b620008bd818562000893565b9350620008cf818560208601620003fb565b620008da8162000330565b840191505092915050565b620008f081620002a6565b82525050565b60006040820190508181036000830152620009128185620008a4565b9050620009236020830184620008e5565b9392505050565b7f4e487b7100000000000000000000000000000000000000000000000000000000600052605160045260246000fd5b61208080620009696000396000f3fe6080604052600436106100fe5760003560e01c8063752e19f911610095578063b82c86d611610064578063b82c86d61461031a578063c19d93fb14610345578063c3e20c9f14610370578063c59ee1dc1461039b578063ff3a9c7e146103c6576100fe565b8063752e19f91461025a578063937e09b114610283578063992a7dfb146102ae578063b40141bf146102ef576100fe565b80634e695a37116100d15780634e695a37146101c15780635b6b98b9146101ea5780636f9fb98a1461021357806373e888fd1461023e576100fe565b806302d05d3f1461010357806303c29d581461012e5780631f6d4942146101595780634e260f6f14610196575b600080fd5b34801561010f57600080fd5b506101186103f7565b6040516101259190611127565b60405180910390f35b34801561013a57600080fd5b5061014361041b565b60405161015091906111d2565b60405180910390f35b34801561016557600080fd5b50610180600480360381019061017b9190611246565b6104a9565b60405161018d919061128c565b60405180910390f35b3480156101a257600080fd5b506101ab6104c1565b6040516101b8919061128c565b60405180910390f35b3480156101cd57600080fd5b506101e860048036038101906101e391906112d3565b6104c7565b005b3480156101f657600080fd5b50610211600480360381019061020c9190611435565b6106c7565b005b34801561021f57600080fd5b5061022861091c565b604051610235919061128c565b60405180910390f35b61025860048036038101906102539190611246565b610924565b005b34801561026657600080fd5b50610281600480360381019061027c91906112d3565b610b62565b005b34801561028f57600080fd5b50610298610da7565b6040516102a5919061128c565b60405180910390f35b3480156102ba57600080fd5b506102d560048036038101906102d091906112d3565b610dad565b6040516102e69594939291906114ac565b60405180910390f35b3480156102fb57600080fd5b50610304610e98565b604051610311919061128c565b60405180910390f35b34801561032657600080fd5b5061032f610e9e565b60405161033c919061128c565b60405180910390f35b34801561035157600080fd5b5061035a610ea4565b604051610367919061157d565b60405180910390f35b34801561037c57600080fd5b50610385610eb7565b60405161039291906111d2565b60405180910390f35b3480156103a757600080fd5b506103b0610f45565b6040516103bd919061128c565b60405180910390f35b3480156103d257600080fd5b506103db610f4b565b6040516103ee9796959493929190611598565b60405180910390f35b60008054906101000a900473ffffffffffffffffffffffffffffffffffffffff1681565b6006805461042890611644565b80601f016020809104026020016040519081016040528092919081815260200182805461045490611644565b80156104a15780601f10610476576101008083540402835291602001916104a1565b820191906000526020600020905b81548152906001019060200180831161048457829003601f168201915b505050505081565b60086020528060005260406000206000915090505481565b60045481565b6000600860003373ffffffffffffffffffffffffffffffffffffffff1673ffffffffffffffffffffffffffffffffffffffff1681526020019081526020016000205411610549576040517f08c379a0000000000000000000000000000000000000000000000000000000008152600401610540906116c1565b60405180910390fd5b600060096000838152602001908152602001600020905060008160030160003373ffffffffffffffffffffffffffffffffffffffff1673ffffffffffffffffffffffffffffffffffffffff16815260200190815260200160002054146105e4576040517f08c379a00000000000000000000000000000000000000000000000000000000081526004016105db9061172d565b60405180910390fd5b6000600860003373ffffffffffffffffffffffffffffffffffffffff1673ffffffffffffffffffffffffffffffffffffffff168152602001908152602001600020549050808260030160003373ffffffffffffffffffffffffffffffffffffffff1673ffffffffffffffffffffffffffffffffffffffff1681526020019081526020016000208190555080826002016000828254610682919061177c565b925050819055507fa2925e4595bf873fa82c22a1a89809777347023bf2b502d32710157a5eb8199c33846040516106ba9291906117bf565b60405180910390a1505050565b60008054906101000a900473ffffffffffffffffffffffffffffffffffffffff1673ffffffffffffffffffffffffffffffffffffffff163373ffffffffffffffffffffffffffffffffffffffff1614610755576040517f08c379a000000000000000000000000000000000000000000000000000000000815260040161074c9061185a565b60405180910390fd5b60018081111561076857610767611506565b5b600760009054906101000a900460ff16600181111561078a57610789611506565b5b146107ca576040517f08c379a00000000000000000000000000000000000000000000000000000000081526004016107c190611912565b60405180910390fd5b4781111561080d576040517f08c379a0000000000000000000000000000000000000000000000000000000008152600401610804906119a4565b60405180910390fd5b600060096000600a6000815480929190610826906119c4565b91905055815260200190815260200160002090508281600001908161084b9190611bb8565b5081816001018190555060008054906101000a900473ffffffffffffffffffffffffffffffffffffffff168160040160016101000a81548173ffffffffffffffffffffffffffffffffffffffff021916908373ffffffffffffffffffffffffffffffffffffffff1602179055507f8f1d98cb8ae39006c9203b8574cf20dfcf409ca763f70058154e7e03bacbc7b0600a54848460008054906101000a900473ffffffffffffffffffffffffffffffffffffffff1660405161090f9493929190611cdf565b60405180910390a1505050565b600047905090565b600254341015610969576040517f08c379a000000000000000000000000000000000000000000000000000000000815260040161096090611d9d565b60405180910390fd5b6000600181111561097d5761097c611506565b5b600760009054906101000a900460ff16600181111561099f5761099e611506565b5b14806109dd57506001808111156109b9576109b8611506565b5b600760009054906101000a900460ff1660018111156109db576109da611506565b5b145b610a1c576040517f08c379a0000000000000000000000000000000000000000000000000000000008152600401610a1390611e09565b60405180910390fd5b6000600860008373ffffffffffffffffffffffffffffffffffffffff1673ffffffffffffffffffffffffffffffffffffffff1681526020019081526020016000205403610a7c5760046000815480929190610a76906119c4565b91905055505b34600860008373ffffffffffffffffffffffffffffffffffffffff1673ffffffffffffffffffffffffffffffffffffffff1681526020019081526020016000206000828254610acb919061177c565b925050819055503460036000828254610ae4919061177c565b9250508190555060015460035410610b22576001600760006101000a81548160ff02191690836001811115610b1c57610b1b611506565b5b02179055505b7f5cdc4ab8d637538ead6cc1904d4160343656c8c82bd266635cfd31ac008fffe08134600354604051610b5793929190611e29565b60405180910390a150565b60008054906101000a900473ffffffffffffffffffffffffffffffffffffffff1673ffffffffffffffffffffffffffffffffffffffff163373ffffffffffffffffffffffffffffffffffffffff1614610bf0576040517f08c379a0000000000000000000000000000000000000000000000000000000008152600401610be79061185a565b60405180910390fd5b6000600960008381526020019081526020016000209050600015158160040160009054906101000a900460ff16151514610c5f576040517f08c379a0000000000000000000000000000000000000000000000000000000008152600401610c5690611eac565b60405180910390fd5b6002600354610c6e9190611efb565b81600201541015610cb4576040517f08c379a0000000000000000000000000000000000000000000000000000000008152600401610cab90611fc4565b60405180910390fd5b8060040160019054906101000a900473ffffffffffffffffffffffffffffffffffffffff1673ffffffffffffffffffffffffffffffffffffffff166108fc82600101549081150290604051600060405180830381858888f19350505050158015610d22573d6000803e3d6000fd5b5060018160040160006101000a81548160ff0219169083151502179055507f03bacb971b4d3ffb7dd453ff3b54c68cb149f7b8c5e667889ef5fa01857e87358282600101548360040160019054906101000a900473ffffffffffffffffffffffffffffffffffffffff16604051610d9b93929190611fe4565b60405180910390a15050565b60025481565b6009602052806000526040600020600091509050806000018054610dd090611644565b80601f0160208091040260200160405190810160405280929190818152602001828054610dfc90611644565b8015610e495780601f10610e1e57610100808354040283529160200191610e49565b820191906000526020600020905b815481529060010190602001808311610e2c57829003601f168201915b5050505050908060010154908060020154908060040160009054906101000a900460ff16908060040160019054906101000a900473ffffffffffffffffffffffffffffffffffffffff16905085565b600a5481565b60015481565b600760009054906101000a900460ff1681565b60058054610ec490611644565b80601f0160208091040260200160405190810160405280929190818152602001828054610ef090611644565b8015610f3d5780601f10610f1257610100808354040283529160200191610f3d565b820191906000526020600020905b815481529060010190602001808311610f2057829003601f168201915b505050505081565b60035481565b600080600060608060008060008054906101000a900473ffffffffffffffffffffffffffffffffffffffff1696506001549550600354945060058054610f9090611644565b80601f0160208091040260200160405190810160405280929190818152602001828054610fbc90611644565b80156110095780601f10610fde57610100808354040283529160200191611009565b820191906000526020600020905b815481529060010190602001808311610fec57829003601f168201915b505050505093506006805461101d90611644565b80601f016020809104026020016040519081016040528092919081815260200182805461104990611644565b80156110965780601f1061106b57610100808354040283529160200191611096565b820191906000526020600020905b81548152906001019060200180831161107957829003601f168201915b50505050509250600760009054906101000a900460ff16915047905090919293949596565b60006a636f6e736f6c652e6c6f679050600080835160208501845afa505050565b6110e461201b565b565b600073ffffffffffffffffffffffffffffffffffffffff82169050919050565b6000611111826110e6565b9050919050565b61112181611106565b82525050565b600060208201905061113c6000830184611118565b92915050565b600081519050919050565b600082825260208201905092915050565b60005b8381101561117c578082015181840152602081019050611161565b60008484015250505050565b6000601f19601f8301169050919050565b60006111a482611142565b6111ae818561114d565b93506111be81856020860161115e565b6111c781611188565b840191505092915050565b600060208201905081810360008301526111ec8184611199565b905092915050565b6000604051905090565b600080fd5b600080fd5b6000611213826110e6565b9050919050565b61122381611208565b811461122e57600080fd5b50565b6000813590506112408161121a565b92915050565b60006020828403121561125c5761125b6111fe565b5b600061126a84828501611231565b91505092915050565b6000819050919050565b61128681611273565b82525050565b60006020820190506112a1600083018461127d565b92915050565b6112b081611273565b81146112bb57600080fd5b50565b6000813590506112cd816112a7565b92915050565b6000602082840312156112e9576112e86111fe565b5b60006112f7848285016112be565b91505092915050565b600080fd5b600080fd5b7f4e487b7100000000000000000000000000000000000000000000000000000000600052604160045260246000fd5b61134282611188565b810181811067ffffffffffffffff821117156113615761136061130a565b5b80604052505050565b60006113746111f4565b90506113808282611339565b919050565b600067ffffffffffffffff8211156113a05761139f61130a565b5b6113a982611188565b9050602081019050919050565b82818337600083830152505050565b60006113d86113d384611385565b61136a565b9050828152602081018484840111156113f4576113f3611305565b5b6113ff8482856113b6565b509392505050565b600082601f83011261141c5761141b611300565b5b813561142c8482602086016113c5565b91505092915050565b6000806040838503121561144c5761144b6111fe565b5b600083013567ffffffffffffffff81111561146a57611469611203565b5b61147685828601611407565b9250506020611487858286016112be565b9150509250929050565b60008115159050919050565b6114a681611491565b82525050565b600060a08201905081810360008301526114c68188611199565b90506114d5602083018761127d565b6114e2604083018661127d565b6114ef606083018561149d565b6114fc6080830184611118565b9695505050505050565b7f4e487b7100000000000000000000000000000000000000000000000000000000600052602160045260246000fd5b6002811061154657611545611506565b5b50565b600081905061155782611535565b919050565b600061156782611549565b9050919050565b6115778161155c565b82525050565b6000602082019050611592600083018461156e565b92915050565b600060e0820190506115ad600083018a611118565b6115ba602083018961127d565b6115c7604083018861127d565b81810360608301526115d98187611199565b905081810360808301526115ed8186611199565b90506115fc60a083018561156e565b61160960c083018461127d565b98975050505050505050565b7f4e487b7100000000000000000000000000000000000000000000000000000000600052602260045260246000fd5b6000600282049050600182168061165c57607f821691505b60208210810361166f5761166e611615565b5b50919050565b7f4f6e6c7920636f6e7472696275746f72732063616e20766f7465210000000000600082015250565b60006116ab601b8361114d565b91506116b682611675565b602082019050919050565b600060208201905081810360008301526116da8161169e565b9050919050565b7f596f7520616c726561647920766f746564210000000000000000000000000000600082015250565b600061171760128361114d565b9150611722826116e1565b602082019050919050565b600060208201905081810360008301526117468161170a565b9050919050565b7f4e487b7100000000000000000000000000000000000000000000000000000000600052601160045260246000fd5b600061178782611273565b915061179283611273565b92508282019050808211156117aa576117a961174d565b5b92915050565b6117b981611208565b82525050565b60006040820190506117d460008301856117b0565b6117e1602083018461127d565b9392505050565b7f4f6e6c79207468652063726561746f722063616e20706572666f726d2074686960008201527f73206f7065726174696f6e210000000000000000000000000000000000000000602082015250565b6000611844602c8361114d565b915061184f826117e8565b604082019050919050565b6000602082019050818103600083015261187381611837565b9050919050565b7f50726f6a656374206861736e2774206d65742069747320676f616c207965742e60008201527f20596f752063616e6e6f74207769746864726177207768696c6520746865206360208201527f616d706169676e206973207374696c6c206f6e676f696e672100000000000000604082015250565b60006118fc60598361114d565b91506119078261187a565b606082019050919050565b6000602082019050818103600083015261192b816118ef565b9050919050565b7f52657175657374656420616d6f756e74206578636565647320636f6e7472616360008201527f742062616c616e63650000000000000000000000000000000000000000000000602082015250565b600061198e60298361114d565b915061199982611932565b604082019050919050565b600060208201905081810360008301526119bd81611981565b9050919050565b60006119cf82611273565b91507fffffffffffffffffffffffffffffffffffffffffffffffffffffffffffffffff8203611a0157611a0061174d565b5b600182019050919050565b60008190508160005260206000209050919050565b60006020601f8301049050919050565b600082821b905092915050565b600060088302611a6e7fffffffffffffffffffffffffffffffffffffffffffffffffffffffffffffffff82611a31565b611a788683611a31565b95508019841693508086168417925050509392505050565b6000819050919050565b6000611ab5611ab0611aab84611273565b611a90565b611273565b9050919050565b6000819050919050565b611acf83611a9a565b611ae3611adb82611abc565b848454611a3e565b825550505050565b600090565b611af8611aeb565b611b03818484611ac6565b505050565b5b81811015611b2757611b1c600082611af0565b600181019050611b09565b5050565b601f821115611b6c57611b3d81611a0c565b611b4684611a21565b81016020851015611b55578190505b611b69611b6185611a21565b830182611b08565b50505b505050565b600082821c905092915050565b6000611b8f60001984600802611b71565b1980831691505092915050565b6000611ba88383611b7e565b9150826002028217905092915050565b611bc182611142565b67ffffffffffffffff811115611bda57611bd961130a565b5b611be48254611644565b611bef828285611b2b565b600060209050601f831160018114611c225760008415611c10578287015190505b611c1a8582611b9c565b865550611c82565b601f198416611c3086611a0c565b60005b82811015611c5857848901518255600182019150602085019450602081019050611c33565b86831015611c755784890151611c71601f891682611b7e565b8355505b6001600288020188555050505b505050505050565b6000611ca5611ca0611c9b846110e6565b611a90565b6110e6565b9050919050565b6000611cb782611c8a565b9050919050565b6000611cc982611cac565b9050919050565b611cd981611cbe565b82525050565b6000608082019050611cf4600083018761127d565b8181036020830152611d068186611199565b9050611d15604083018561127d565b611d226060830184611cd0565b95945050505050565b7f416d6f756e74206c657373207468616e20746865206d696e696d756d20636f6e60008201527f747269627574696f6e2100000000000000000000000000000000000000000000602082015250565b6000611d87602a8361114d565b9150611d9282611d2b565b604082019050919050565b60006020820190508181036000830152611db681611d7a565b9050919050565b7f43616e6e6f7420636f6e74726962757465206174207468697320737461676521600082015250565b6000611df360208361114d565b9150611dfe82611dbd565b602082019050919050565b60006020820190508181036000830152611e2281611de6565b9050919050565b6000606082019050611e3e60008301866117b0565b611e4b602083018561127d565b611e58604083018461127d565b949350505050565b7f5265717565737420616c726561647920636f6d706c6574656400000000000000600082015250565b6000611e9660198361114d565b9150611ea182611e60565b602082019050919050565b60006020820190508181036000830152611ec581611e89565b9050919050565b7f4e487b7100000000000000000000000000000000000000000000000000000000600052601260045260246000fd5b6000611f0682611273565b9150611f1183611273565b925082611f2157611f20611ecc565b5b828204905092915050565b7f4174206c656173742035302520636f6e7472696275746f72732028627920616d60008201527f6f756e7429206e65656420746f20766f746520666f722074686973207265717560208201527f6573740000000000000000000000000000000000000000000000000000000000604082015250565b6000611fae60438361114d565b9150611fb982611f2c565b606082019050919050565b60006020820190508181036000830152611fdd81611fa1565b9050919050565b6000606082019050611ff9600083018661127d565b612006602083018561127d565b6120136040830184611cd0565b949350505050565b7f4e487b7100000000000000000000000000000000000000000000000000000000600052605160045260246000fdfea2646970667358221220c7e3084a230cf42c2f492b79282a93bf266aa40c4c4ca40f2e63fdb7d0cf669e64736f6c63430008130033a2646970667358221220c7b728e809fdecf11e93dc63d5e719401e090f687607e3b520a729dba10619aa64736f6c63430008130033",
  "linkReferences": {},
  "deployedLinkReferences": {}
}